:020000040000FA
:100000003016002065010000690100006B0100004E
:1000100000000000000000000000000000000000E0
:100020000000000000000000000000006D01000062
:1000300000000000000000006F01000071010000DE
:1000400073010000730100007301000073010000E0
:1000500073010000730100007301000073010000D0
:1000600073010000730100007301000073010000C0
:1000700073010000ED020000F902000045020000DB
:1000800059020000650200004102000073010000F7
:100090007301000073010000730100007301000090
:1000A0007301000073010000730100007301000080
:1000B0007301000073010000730100007301000070
:1000C00000F002F800F03EF80CA030C80838241800
:1000D0002D18A246671EAB4654465D46AC4201D180
:1000E00000F030F87E460F3E0FCCB6460126334274
:1000F00000D0FB1AA246AB4633431847204200000B
:1001000040420000103A02D378C878C1FAD85207AA
:1001100001D330C830C101D504680C6070470000BD
:100120000023002400250026103A01D378C1FBD813
:10013000520700D330C100D50B6070471FB51FBDFB
:1001400010B510BD00F029F81146FFF7F7FF02F0D7
:10015000EFFE00F041F803B4FFF7F2FF03BC00F03C
:1001600047F8000006480047FEE7FEE7FEE7FEE727
:10017000FEE7FEE703480449044A054B70470000C8
:10018000C100000030060020301600203012002090
:1001900030120020704770477047754600F024F811
:1001A000AE46050069465346C008C000854618B0F3
:1001B00020B5FFF7DFFF60BC00274908B6460026E0
:1001C000C0C5C0C5C0C5C0C5C0C5C0C5C0C5C0C507
:1001D000403D49008D46704710B50446C046C046B4
:1001E0002046FFF7B8FF10BD00487047CC0500203F
:1001F00001491820ABBEFEE7260002007047000050
:100200000E4BCA685A608A689A604A68DA600A685F
:100210001A6100BF094A1278D207D20F002AF9D01A
:10022000064A5268C260054A92688260034AD268F0
:100230004260024A126902607047000000B000404C
:100240007047000003484068C007C00F014948607C
:100250007047000000D000400020014988607047CE
:1002600000C00040002001498860704700C0004085
:100270000120074948600020064988600649486017
:1002800006480749086004200649086170470000D5
:1002900000D0004000C000400030004000E10200FB
:1002A00000E100E000ED00E00A7802704A78427058
:1002B0008A788270CA78C2700A7902714A7942716A
:1002C0008A798271CA79C2710A7A02724A7A427252
:1002D0008A7A8272CA7AC2720A7B02734A7B42733A
:1002E0008A7B8273CA7BC273704700000020014979
:1002F0004860704700300040002001494860704766
:100300000030004030B50346002005E00C5C155C71
:100310006C401C54441CE0B21028F7DB30BD30B4F4
:100320007446641E2578641CAB4204D3635D5B0095
:10033000E31830BC18471D46F8E7F7B505460E46EA
:10034000012E06D0022E06D0032E06D0042E08D190
:1003500005E0042305E0032303E0022301E0012379
:1003600000BF00BF8821581E2954042E08DA701ED1
:10037000C7B247204002381801780298014129701D
:10038000012B0CDD012407E03819472149024018F0
:1003900000782855601CC4B2581EA042F4DC00242A
:1003A0000AE0581E285C4721490261180978484034
:1003B000591E6854601CC4B2032CF2DB184603F0CB
:1003C0009BFBFEBDF7B581B006460F46381F030004
:1003D000FFF7A5FF050406080A0C0E00052407E038
:1003E000042405E0032403E0022401E0012400BF0B
:1003F00000BF082F0ADA781EC0B2009047214902D8
:10040000009840180178039801413170012C0DDDEE
:10041000012508E00098401947214902401800785A
:100420007055681CC5B2601EA842F3DC0021601E36
:10043000315400250BE0601E305CE91C472252025B
:10044000891809784840611E7054681CC5B2042D93
:10045000F1DB204603F050FBFFBD0000F0B5C3B058
:10046000074698480079002803D09648007902286A
:100470007CD1786800789449087092488078012887
:1004800003D108460078002810D08E4880780228D2
:1004900066D18E480078CE2148438D4940180079B6
:1004A0000007000F88490978884259DD854880781F
:1004B00001280CD1002407E00120C0032018007897
:1004C00084490855601C84B2102CF5DB21E07D487E
:1004D000807802281DD1002042907C4800780102DB
:1004E0004298081880B242907748007801014298FB
:1004F000081880B24290002409E0429800190921AE
:1005000009034018007873490855601C84B2102C08
:10051000F3DB6C488078012803D06A488078022891
:1005200019D16D488068042108436B4988606B4984
:10053000082001F005FD08236A466649674803F074
:1005400020FE01205F490871AF220821684602F0B1
:1005500059F8B4E00AE0624E304602F081F8AEE0AD
:100560005F4E5D3E304602F07BF8A8E055480079CA
:1005700001286ED110236A465649786803F0D7FDEA
:10058000002500240CE0204608306946095C534AE7
:10059000601C105C814201D1681C85B2601C84B271
:1005A000072CF0DB072D7DD16846C07B4B490978CD
:1005B000884277D1002405E06846005D4949085526
:1005C000601C84B2042CF7DB002406E04348015D84
:1005D000444A201D1154601C84B2042CF6DB002513
:1005E00000240BE03B48015D024620460830105CC9
:1005F000814201D1681C85B2601C84B2082CF1DBF9
:10060000082D18D1002407E06846015D354A2046D0
:1006100008301154601C84B2042CF5DB002407E080
:100620002E48015D2F4A20460C301154601C84B2C4
:10063000042CF5DB18E0002407E06946201D095C66
:10064000284A001D1154601C84B2042CF5DB0024E0
:1006500008E030E02149201D095C224A083011548D
:10066000601C84B2042CF5DB002406E06946601CA3
:10067000085C40A90855601C84B2072CF6DB68466C
:10068000017840A8C17108236A46124903F079FD38
:1006900000220821684601F0B5FF022009490871CF
:1006A0000DE0FFE70E4E1136304601F0D9FF002075
:1006B0000449087103E00A4E304601F0D1FF43B00F
:1006C000F0BD00006E04002020000020210000206A
:1006D00000600000BC05002000D000401800002091
:1006E0009D95000054020020F0B5FFB09CB0064676
:1006F000C1480079002803D0BF48007902287DD185
:1007000070680078BD490870BB488078012803D123
:1007100008460078002810D0B748807802286ED1AB
:10072000B7480078CE214843B64940180079000701
:10073000000FB2490978884261DDAF48807801280E
:100740000CD1002407E00120C0032018007801A983
:100750000855601C84B2102CF5DB21E0A648807897
:1007600002281DD100205590A54800780102559817
:10077000081880B25590A1480078010155980818D2
:1007800080B25590002409E0559800190921090309
:100790004018007801A90855601C84B2102CF3DBC6
:1007A00095488078012803D093488078022845D165
:1007B000002405E00020A100934A5050601C84B240
:1007C000042CF7DB9149102001F0BAFB10228F496D
:1007D0008F4802F01FFC102201A98E4802F01AFC7B
:1007E00056A896908A489990042190A80185864839
:1007F00098908848979098A8817201E02AE023E0B9
:1008000096A803F0D5F8002407E0A00056A90858E0
:10081000A1007D4A5050601C84B2042CF5DB7E4D53
:10082000042256A909A802F0CDFBEAB2102109A8BA
:1008300001F0E8FE012070490871DAE0764D123DC2
:10084000284601F00DFFD4E0734D6F3D284601F0BE
:1008500007FFCEE068480079012876D13068027938
:1008600011A8716802F0D6FB102201A9694802F0B4
:10087000D1FB56A896906748979011A89990316837
:100880000879C117890F0918891090AA11850020CD
:1008900098AA90725C48989096A803F089F83068FE
:1008A00000790090C017810F00980818821056A98F
:1008B00009A802F087FB002700240CE02046103036
:1008C00009A9095C514A601C105C814201D1781C65
:1008D00087B2601C84B20F2CF0DB0F2F7BD110A8E5
:1008E000C0784A490978884275D1002405E009A8F2
:1008F000005D4A490855601C84B2042CF7DB0024D3
:1009000006E04248015D454A201D1154601C84B236
:10091000042CF6DB002408E009A920460C30095C11
:100920003E4A001F1154601C84B2042CF4DB0024E6
:1009300007E0364920460C30095C384A1154601CE7
:1009400084B2042CF5DB002407E04DE009A9601C0B
:10095000085C05A90855601C84B20F2CF6DB08A8BA
:100960000179C170102205A951A802F053FB30682B
:100970000079103872681118102211A802F04AFB91
:1009800056A896902348979051A89990042190A832
:10099000018598A8817211A8989096A803F008F88C
:1009A000042256A909A802F00DFB95252D02EAB2F2
:1009B000102109A801F026FE02200F490871002429
:1009C00006E008E00020A1000F4A5050601C84B2ED
:1009D000042CF7DB0DE0104D6D1E284601F040FEA3
:1009E00000200549087104E00B4D123D284601F036
:1009F00037FE7FB01CB0F0BD6E0400202000002048
:100A000021000020006000007C050020AC050020D3
:100A10009C0500208C050020AF95000054020020AA
:100A2000F0B591B006465C48807802287DD100255B
:100A300014E05A480078CE214843594940180E30F6
:100A40000C2169434018407871680978884203D1C5
:100A500054490D70112501E0681C85B2102DE8DBAA
:100A6000112D7DD14D480078CE2148434C49401886
:100A70000E304C4909780C22514340184079000748
:100A8000000F0E281ED145480078CE214843444926
:100A900040180E304349097851434018001D10900A
:100AA000D7021098C01B80B210907068421C0323BC
:100AB0005803109900F058FF95242402204601F0B5
:100AC000CFFD66E035480078CE21484334494018D0
:100AD0000E30344909780C22514340184079000700
:100AE000000F0F2804D1304C204601F0B9FD50E032
:100AF0002948007902283CD128480078CE21484373
:100B0000274940180E30274909780C2251434018D4
:100B100040790007000F25490978884229D171687A
:100B2000481C082301AA224900E02EE003F0FFFA46
:100B30001A480078CE214843194940180E30194907
:100B400009780C2251434018001D1090D7021098CC
:100B5000C01B80B21090032301AA5803109900E033
:100B60000DE000F001FF95242402204601F078FDFD
:100B70000FE00D4C1134204601F072FD09E00A4CE3
:100B80005334204601F06CFD03E0074C204601F091
:100B900067FD11B0F0BD00006E04002021000020B0
:100BA00000600000220000209D9500002000002031
:100BB0005402002070B5054675488078012803D19D
:100BC0006868007800280ED07148807802287DD1AE
:100BD000686801786F480078CE2250436E4A8018CA
:100BE0000079814272DA6A48807801282CD16B48FA
:100BF0000078C007C00F002820D06548007902287F
:100C000017D164480078CE214843634940180079E1
:100C1000001108280CD05F480078CE2148435E4977
:100C20004018007900110A28F4D0284602F044F850
:100C3000ACE05B4C204601F013FDA7E0584C113CA2
:100C4000204601F00DFDA1E05148807802287DD1B9
:100C500050480078CE2148434F494018C078F021D1
:100C60000840F02803D06868007800280ED1494871
:100C70000078CE21484348494018C078C007C00FCB
:100C8000002872D06868007800286ED1404800794A
:100C900002282AD16868007842490978884224D11C
:100CA0003C480078CE2148433B494018C078F021A9
:100CB0000840E02819D137480078CE21484336490A
:100CC000401800790011082860D000E059E0314850
:100CD0000078CE21484330494018007900110A2895
:100CE00054D0284601F00EFF50E029480079022830
:100CF00035D128480078CE21484327494018C0788C
:100D0000F0210840E0282AD022480078CE2148432C
:100D100021494018C078F0210840224909788842CA
:100D20001DD11C480078CE2148431B49401800794A
:100D30000011082809D017480078CE2148431649E9
:100D40004018007900110A2805D100E013E0284678
:100D500001F05AFE1AE0284601F028FF16E0104C78
:100D6000204601F07DFC11E0FFE70D4C113C2046D0
:100D700001F076FC0AE00A4C113C204601F070FCC0
:100D800004E0074C6E3C204601F06AFC70BD000098
:100D90006E0400202100002000600000208F000071
:100DA000AE9500002000002070B594B006460C46B9
:100DB00015461022314608A802F02CF910221C49D1
:100DC00004A802F027F908A802F0DEFD04A968468D
:100DD000FFF716FA0422694610A802F0F3F810A8EB
:100DE000007880210840002804D1214610A800F096
:100DF00023F808E00CA910A800F01EF80D4A0CA971
:100E00002046FFF77FFA207880210840002804D18F
:100E10002946204600F010F808E00CA9204600F012
:100E20000BF8044A0CA92846FFF76CFA14B070BD01
:100E3000440200200800002030B5024600231020A4
:100E40000CE0441EE0B2145C6406240E0C540C5CEE
:100E50001C430C54145C80252C40E3090028F0D17D
:100E600030BD30B50346002003E01C5C0C54441C2C
:100E7000E0B29042F9DB80248C54002005E000258C
:100E80008418641C0D55441CE0B20F24A41A84423B
:100E9000F5DC30BDFEB5054600270024002000909B
:100EA0002BE0CE2060434849085C002801D1012096
:100EB00000E00020CE216143434A89184978002987
:100EC00001D1012100E000210840CE2161433E4ACA
:100ED00089188978002901D1012100E0002108400A
:100EE00000900098002803D0E0B20190052404E0AF
:100EF000601C84B23846CE3087B2042CD1DB04D1DA
:100F0000324E304601F0ACFB5DE0052C5BD16868E9
:100F10000078002809D168684078002805D1686801
:100F20008078002801D1062432E0002400200090BF
:100F30002CE0CE2060432449085C69680978884227
:100F400001D1012000E00020CE2161431E4A891812
:100F500049786A685278914201D1012100E000216C
:100F60000840CE216143184A891889786A689278C6
:100F7000914201D1012100E0002108400090009839
:100F8000002801D0062401E0601C84B2042CD0DBD0
:100F9000062C05D10D4E1036304601F061FB12E0F3
:100FA000286803793946032040036A6800F0DCFCB6
:100FB0000749019808700220064988709526360274
:100FC000304601F04DFBFEBD00600000CE950000F4
:100FD000210000206E040020F0B595B00646306870
:100FE0004078CD2808D070680078072804DDFE4FCF
:100FF000384601F035FBE7E2FC48807802287CD1D6
:1010000000257068007800283AD136E0F84800786A
:10101000CE214843F74940180E300C21694340184F
:10102000407871680978884226D1F1480078CE214D
:101030004843F04940180E300C2169434018139082
:10104000032464031398001B1390002014900024C1
:101050000BE0139800190321490340180078002879
:1010600002D11498401C1490641C0C2CF1D31498D9
:101070000C2802D0112500E06D1C102DC6D314E001
:1010800011E0DB480078CE214843DA4940180E30A1
:101090000C2169434018407871680978884201D171
:1010A000112500E06D1C102DEBD330684078CD2861
:1010B00027D1102D25D1002521E0CD480078CE2163
:1010C0004843CC4940180E300C21694340188078C1
:1010D00071684978884211D1C5480078CE214843CB
:1010E000C44940180E300C2169434018C07871681B
:1010F0008978884202D1112501E060E26D1C102D33
:10110000DBD3102D7CD1002529E0B9480078CE2111
:101110004843B84940180E300C21694340181390D9
:10112000032464031398001B1390002014900024E0
:101130000BE0139800190321490340180078002898
:1011400002D11498401C1490641C0C2CF1D31498F8
:101150000C2803D1A8490D70112500E06D1C102D3D
:10116000D3D3A548007800284BD1A14800780028A7
:1011700002D1A249088004E1002500240FE09C4828
:101180000078401ECE2148439A4940180E300C2169
:10119000694340184078002800D0641C6D1C102D55
:1011A000EDD3641E92480078401ECE2148439149F9
:1011B00040180E300C216143401840898F49088047
:1011C0008B480078401ECE2148438A4940180E3093
:1011D0000C2161434018007A050285480078401EC2
:1011E000CE225043834A80180E300C22624380186E
:1011F000C079054381480088401980490880C0E0D3
:10120000D8E17B480078CE2148437A4941180E3115
:1012100079480078401E0C225043085C0300FFF719
:101220007EF8050437657879AE0071480078CE21E4
:101230004843704941180E316F480078401E0C2217
:101240005043081840896D49088069480078CE21CC
:101250004843684941180E3167480078401E5043A2
:101260000818007A040262480078CE225043614A8E
:1012700082180E3260480078401E0C235843101824
:10128000C07904435D48008800195C49088077E014
:1012900057480078CE214843564941180E315648E8
:1012A0000078401E0C22504308180390039841898F
:1012B0000089814204DD039840895049088003E099
:1012C000039800894D4908800398807900020399AA
:1012D000497908430446494800880019474908806D
:1012E0000846008800194649088049E040480078CF
:1012F000CE2148433F4941180E313F480078401EF7
:101300000C225043081802900298408A3B490880FA
:1013100036E000BF36480078CE21484335494118B1
:101320000E3135480078401E0C22504308180190B9
:10133000039841890089814204DD039840892F493F
:10134000088003E0039800892C490880002511E0FB
:101350000198807900020199497908430446274899
:10136000008800192549088008460088001924498A
:1013700008806D1C0198007AA842E9D800E000BFFF
:1013800000BF30684078CB2865D004DCC0287DD011
:10139000C1287CD1B0E0CC287AD0CD28F9D13068F2
:1013A0000079072835D100216846017470680178FA
:1013B0006846417400218174C174012405E070689D
:1013C000015D04AAE01C1154641C072CF7D30B48E0
:1013D0000088011204AAE01C115408480178201D5D
:1013E0001154601D83B20DE0CE9500006E04002004
:1013F00021000020006000002C0000202E000020B2
:1014000030000020139881B20320400300F0ACFAB2
:1014100020E0002069460874002405E07068015D42
:1014200004AA601C1154641C30680079A042F5D8ED
:1014300066480088011204AA601C115463480178B0
:10144000A01C1154E01C83B2139881B20320400306
:1014500000F08AFAA7E0012069460874002405E03C
:101460007068015D04AA601C1154641C3068007926
:10147000A042F5D855480088011204AA601C1154F6
:1014800052480178A01C1154514802E05FE089E005
:1014900010E000880112E01C11544D480178201D15
:1014A0001154E01C83B2139881B20320400300F072
:1014B0005BFA78E0022069460874002405E0706851
:1014C000015D04AA601C1154641C30680079A042BC
:1014D000F5D83E480088011204AA601C11543B480C
:1014E0000178A01C1154E01C83B2139881B2032030
:1014F000400300F039FA56E00320694608740024DE
:1015000005E07068015D04AA601C1154641C306819
:101510000079A042F5D82D480088011204AA601C69
:1015200011542A480178A01C11542948008801123E
:10153000E01C115426480178201D1154E01C83B290
:10154000139881B20320400300F00EFA2BE0042030
:1015500069460874002405E07068015D04AA601CF7
:101560001154641C30680079A042F5D817480088EF
:10157000011204AA601C115414480178A01C1154D3
:10158000134800880112E01C115411480178201DF5
:101590001154E01C83B2139881B20320400300F081
:1015A000E3F900E000BF00BF95273F02384601F095
:1015B00057F809E0074F384601F052F804E0054FAC
:1015C000413F384601F04CF815B0F0BD2E00002028
:1015D00030000020DE950000F0B58FB005460027F2
:1015E000002422E0CE2060432849085C696809781D
:1015F000884215D1CE20604324494018407869685C
:10160000497888420CD1CE20604320494018807828
:1016100069688978884203D105241D48047004E074
:10162000601C84B23846CE3087B2042CDADB052C3D
:1016300024D11848007902281BD1174800780028C7
:1016400017D1002404E0002069460855601C84B2CC
:10165000032CF8DB03236A463946580300F084F96B
:1016600095263602304600F0FBFF012009498870BC
:1016700009E00A4E304600F0F3FF04E0074EF61C86
:10168000304600F0EDFF0FB0F0BD0000006000003C
:10169000210000206E040020200000209D95000005
:1016A00001684978AF2904D10A4949780268517024
:1016B0000AE00021074AD1705171917111460979F0
:1016C000012901D10021117101684978014A517045
:1016D000704700006E04002010B504462068407872
:1016E000A42804D0B02806D0D6280CD107E0204684
:1016F00001F04CFB0CE0204601F0F8FA08E020462F
:1017000001F0EAFB04E06D20000200F0A9FF00BF39
:1017100000BF10BD10B504462046FFF7C1FF20688A
:101720004078BD2863D018DC60284AD00CDC4528FE
:1017300069D004DC0A2831D03D286BD153E05A2807
:1017400028D05F2866D156E064285FD06A2831D05F
:101750006F2841D0AA285DD124E0CC2836D00CDCFB
:10176000C4284CD004DCC02832D0C12852D12EE08D
:10177000CA280BD0CB284DD127E0CD2824D0DA2899
:101780001BD0F5282BD0FC2844D10FE02046FFF7D2
:1017900081FB3FE0204601F009FF3BE02046FEF7D9
:1017A0005DFE37E02046FEF79FFF33E0204600F065
:1017B0008BF92FE000F09EF92CE02046FFF70CFF9C
:1017C00028E000F0EDFB25E000BF00BF00BF00BF38
:1017D0002046FFF701FC1DE000F0D8F91AE0204692
:1017E00000F01AFA16E0204602F090F912E02046C6
:1017F00001F04CFC0EE02046FFF712F90AE020460B
:10180000FFF7D8F906E000F02BFB03E0204600F0DC
:1018100063FB00BF00BF10BD70B504462068407870
:10182000022808D105201E49086010201D4948756E
:1018300000201B4908602068407803281AD14720FF
:101840004002C079FF2804D047204002C079002818
:101850000BD120680079082807DC20680379002173
:1018600047204002626800F07FF80920000300F082
:10187000F7FE14E02068407804280CD120688078B6
:1018800000022168C978451820680179002228469D
:1018900000F0B8FE03E06D20000200F0E1FE70BD34
:1018A00000D000404055000070B505460C4616E0DB
:1018B000284600F043F8012252021849284600F059
:1018C000E5F8012252021549E81DF93000F0DEF872
:1018D000FF35FF350235E01FFF38FA3884B20120AA
:1018E00040028442E4DA002C17D0284600F026F8A3
:1018F000FF2C05DC22460949284600F0C7F80CE019
:10190000E01FF93882B20549284600F0BFF8FF22EF
:1019100001320249A81800F0B9F870BD3400002067
:101920000146002003E00A5C034B1A54401C0122CC
:1019300052029042F7DB70476E02002003214903F8
:1019400088420ED3400A0749096801221143054A1B
:1019500011603021017011460968FE221140014AD0
:101960001160704700D00040FFB581B006460C46BC
:101970001D46F705FF0D002F02D0F61BE01984B2BB
:1019800006E0FF36FF360236E01FFF38FA3884B231
:10199000012040028442F4DA1BE03046FFF7C0FF2A
:1019A0003046FFF7CBFF22463549304600F06EF84F
:1019B00001214902091B8AB23019039900F066F827
:1019C000FF36FF36023601204002001B281A85B27E
:1019D00000246019012149028842DEDA3046FFF70F
:1019E0009FFF3046FFF7AAFF002C15DDFF2C05DC1A
:1019F00022462349304600F049F80DE0FF2201322B
:101A00001F49304600F042F8E01FF93882B21D4904
:101A1000F01DF93000F03AF830192A46039900F029
:101A200035F860191849884228D0481C001B401B13
:101A3000FF280BDC4B1C1B1B5B1B9AB2104B1B19AA
:101A400059193319581900F021F817E0FF23013311
:101A50001B1B5B1B9AB20A4B1B19591933195819D6
:101A600000F014F8064800194019FF300130001B3F
:101A7000411BFF220132B01800F008F805B0F0BD9C
:101A80006E0200206E030020FF01000010B50C4B19
:101A90001A625962986200230A4C2361084B1B6842
:101AA00004242343064C236030BF23461B68FB24D9
:101AB0002340034C23600423024C236110BD00002B
:101AC00000D0004000ED00E070B505460748007901
:101AD000022806D1286840780449487000F0D2FDF9
:101AE00003E0034C204600F0BBFD70BD6E040020F7
:101AF000AE95000070B586B00024002615E0CE201B
:101B000060432149085C00280BD1CE206043401877
:101B10004078002805D1CE20604340188078002806
:101B200001D0701CC6B2601CC4B2042CE7DB142EBA
:101B300028DA002400251EE0CE20604312490A5C0A
:101B40002846691CCDB201A90A54CE2060430E4933
:101B5000401842782846691CCDB201A90A54CE200B
:101B600060430949401882782846691CCDB201A912
:101B70000A54601CC4B2B442DEDB0022294601A82C
:101B800000F040FD06B070BD0060000070B590B080
:101B90001D488078012804D11C4E304600F060FDBD
:101BA00030E019488078022828D1002400251DE063
:101BB00017480078CE214843164940180E300C21B2
:101BC00061434018407800280ED011480078CE219B
:101BD0004843104940180E300C21614340184078AA
:101BE00069464855681C85B2601C84B2102CDFDB46
:101BF00000222946684600F005FD03E0034E30460A
:101C000000F02EFD10B070BD6E0400209D95000008
:101C10002100002000600000F1B590B08B48807872
:101C2000012804D18A4F384600F01AFD0CE187489C
:101C3000807802287ED1002615E086480078CE21E3
:101C40004843854940180E300C21714340184178B3
:101C5000109840680078814203D180490E701126A7
:101C600001E0701C86B2102EE7DB112E7DD1794881
:101C70000078CE214843784940180E3077490978DA
:101C80000C225143405C0300FEF749FB050405703C
:101C9000A5A6D30000BF6F480078CE2148436E4907
:101CA00040180E306D4909780C225143415C68465A
:101CB000417068480078CE214843674940180E308B
:101CC0006649097851434018017968468170614836
:101CD0000078CE214843604940180E305F490978AA
:101CE0005143401841796846C1705A480078CE2166
:101CF0004843594940180E30584909785143401813
:101D000081796846017153480078CE214843524991
:101D100040180E305149097851434018C17968463E
:101D200041714C480078CE2148434B4940180E3051
:101D30004A4900E084E0097851434018017A684636
:101D4000817144480078CE214843434940180E3001
:101D50004249097851434018417A6846C1710022CE
:101D60000721401C00F04EFC64E064E03948007834
:101D7000CE214843384940180E30384909780C22A2
:101D800051434418217868464170A1788170E17808
:101D9000C1702179017161794171A1798171E17914
:101DA000C171217A0172617A4172A17A8172E17AFC
:101DB000C172217B0173217E4173617E8173A17E9B
:101DC000C173E17E0174617C417400221121401CC9
:101DD00000F018FC2EE000BF1E480078CE214843DA
:101DE0001D4940180E301D4909780C2251434518F1
:101DF000297868464170A9788170E978C17029799D
:101E0000017169794171A9798171E979C171297A81
:101E10000172697A4172A97A8172297CC172697CE6
:101E20000173A97C417300220D21401C00F0EAFBE4
:101E300000E000BF08E0064F384600F011FC03E068
:101E40009D27384600F00CFC11B0F0BD6E04002058
:101E5000F09500002100002000600000220000201A
:101E600038B51848807801280AD1174801786846A3
:101E70000170012141700022022100F0C3FB20E02B
:101E800010488078022818D110480078CE214843A5
:101E90000F494018C178684601700C480078CE217F
:101EA00048430B49401800790107090F6846417003
:101EB0000022022100F0A6FB03E0064C204600F0C1
:101EC000CFFB38BD6E040020208F000021000020D1
:101ED000006000009D950000F8B505461448807824
:101EE000012805D100220121124800F08BFB1EE0E1
:101EF0000F488078022816D10F480078401C000651
:101F0000040C2046103884B268680078001984B246
:101F10000920000320180078009000220121684663
:101F200000F070FB03E0054E304600F099FBF8BD71
:101F30006E04002011800000210000209D9500000B
:101F400030B502469923144CA46804252C43124D45
:101F5000AC60124C63600124104D2C7000BF0F4C1C
:101F6000247802252C40002CF9D0002004E00B4CF2
:101F700064680C54441CE0B29042F8DB074C2478AF
:101F8000FE252C40054D2C70034CA468FB252C40ED
:101F9000014DAC6030BD000000D00040009000401A
:101FA0001FB52B48C078002814D104216846017061
:101FB000012141708170C170002101711A214171AC
:101FC00005218171AF22072100F01CFB012020496F
:101FD000C8703BE01E48C078012814D1042168462F
:101FE0000170012141708170C170032101711A21BA
:101FF000417105218171AF22072100F003FB02200E
:102000001349C87022E01248C07802281ED100246B
:1020100007E047204002201801786A46601C1154EE
:10202000C4B2072CF5DB002168460172417281724F
:10203000C1720173392141730821817300220E217D
:10204000401C00F0DFFA00200149C8701FBD0000ED
:102050006E040020F0B585B0044620780090DA4880
:102060000078002806D0012818D002287ED0032846
:1020700013D195E10098522802D0009826280CD15F
:102080004420207003206070022001F035FD012003
:10209000CD490870002005B0F0BD91E1009893286B
:1020A0006FD1607820281FD18820207000202071F7
:1020B000207921784840207100250EE04720400219
:1020C00028180178681C2154207947214902691891
:1020D000097848402071681CC5B2032DEEDB05204D
:1020E00001F00AFD0020D6E76078702826D1002094
:1020F000029000250BE0E81C205C4721490269188A
:102100000978884201D001200290681CC5B2032DD5
:10211000F1DB029800280CD1242020700123AB4A67
:10212000511C881E01F092FC032001F0E5FC002008
:10213000B1E70320A44908700020ACE760780011E3
:10214000801EC7B26078C117490F0918C910C900AD
:10215000411ACEB2002F1BDD781EC0B20390002EB4
:1021600010DD472149020398401800E0FCE00078A8
:102170000821891B8840C0B20821891B08410290B0
:102180000FE037E04720400238180078029008E05E
:102190000820811B88208840C0B20821891B084183
:1021A0000290002E03DDB81C205C019004E0472063
:1021B000400238180078019001990298884214D1A1
:1021C0000120834908700820801B00028149C860F3
:1021D000324639462046FEF7B0F800207D49C860F7
:1021E00001207D490870002055E7032076490870DA
:1021F000002050E7009895286FD1607820281AD1E8
:102200000020207100250FE0E81C472149024018FA
:10221000007860552079E91C472252028918097814
:1022200048402071681CC5B2042DEDDB052001F08B
:1022300063FC00202FE76078702828D100200290EE
:1022400003250BE0681E205C4721490269180978C4
:10225000884201D001200290681CC5B2072DF1DB35
:10226000029800280ED1202020700123574A511CCB
:10227000881E01F0EBFB032001F03EFC02205249D6
:10228000087070E0032050490870002003E7607870
:102290000011871C6078C117490F0918C910C900BF
:1022A000411ACEB2002F19DD781EC0B20390002E65
:1022B0000DDD472149020398401800780821891B49
:1022C0008840C0B20821891B084102900FE04720D6
:1022D000400238180078029009E031E00820811BA4
:1022E00088208840C0B20821891B08410290002E36
:1022F00003DDB81E205C019004E04720400238183E
:102300000078019001990298884214D10120304947
:1023100008700820801B00022E49C86032463946EA
:102320002046FEF74FF800202A49C86001202A49BC
:1023300008700020AFE60320234908700020AAE6B9
:102340000098522802D00098262808D144202070F6
:1023500003206070022001F0CFFB00209BE60020EC
:102360001949087097E62BE00098502804D1032003
:102370001549087000208EE60098522802D0009877
:1023800026280BD14420207003206070022001F029
:10239000B3FB01200C49087000207CE601207AE69E
:1023A000009852280BD14420207003206070022036
:1023B00001F0A2FB01200449087000206BE600BF79
:1023C00000BF002067E60000260000200127002053
:1023D0002B0000200030004027000020F8B5044604
:1023E0006DA0006800902078FE2108400646207805
:1023F000C707FF0F69480078022803D1AA2068495F
:1024000048700AE065480078032803D1AB2064498E
:10241000487002E0EE2062494870C22E70D008DC9D
:10242000002E6ED0022E45D0522E09D0B22E11D1E0
:1024300061E0D02E28D0E02E0DD0F22EF7D16EE044
:102440004420207003206070022001F055FB012021
:10245000544908709DE006202070752060700020AF
:10246000A0708120E0700020207180206071062320
:102470004D4A511CC81F01F0E9FA02204749087073
:10248000082001F039FB84E0A07845490870012359
:10249000454A521F511C881E01F0D8FA03203F49BB
:1024A000087001F029FB3E4800780007000F3F4903
:1024B00088606EE03C48801F4078002809D03A4888
:1024C000801F4078512804D03748801F40789028DA
:1024D00001D10320F8BD912060701C20A07003235F
:1024E000314AD21E511C081F01F0B0FA052001F03C
:1024F00003FB0320EEE7012F04D1A220207003E0AC
:1025000035E045E0A32020700123274A521F511CCB
:10251000881E01F09BFA032001F0EEFA39E0012158
:10252000490303204003FFF7BFF90121C903052038
:102530004003FFF7B9F90121090309200003FFF760
:10254000B3F911210120C003FFF7AEF901236A4658
:1025500000211748FFF708FA164800781249891F2A
:10256000087095252D02284600F07AF811E0012325
:102570000D4A521F511C881E01F068FA032001F019
:10258000BBFA03200749087000200849886000E072
:1025900000BF00BF02209DE70F00000027000020C1
:1025A00064020020260000200627002000300040A2
:1025B000208F00006E04002010B5044613E00E4882
:1025C00001F082FA0D480078022805D00C48FFF788
:1025D00041FD002800D106E00948FFF7FFFE022870
:1025E00000D100E000E0EAE700BF0548401C2060A1
:1025F000401D6060002010BD280000202600002043
:1026000000270020FEB507460C461646002506E0CA
:10261000795D681C114A80180170681C85B2A5425A
:10262000F6DB952002900196611C0C4A89180298ED
:102630000870A01C11464018019E0670E01C83B271
:102640004218201D401801460090044801F0FEF990
:10265000611DC8B201F050FAFEBD00000027002045
:1026600010B504462012064948708C700323CA1C1A
:10267000091D081F01F0EAF9052001F03DFA10BD1F
:102680000027002010B50948007809490870F22099
:10269000064908703B20487002238A1CC91CC81ECA
:1026A00001F0D4F9042001F027FA10BD0027002022
:1026B0006E040020FEB507460C461646002506E0CF
:1026C000795D681C114A80180170681C85B2A542AA
:1026D000F6DB902002900196611C0C4A8918029842
:1026E0000870A01C11464018019E0670E01C83B2C1
:1026F0004218201D401801460090044801F0A6F938
:10270000611DC8B201F0F8F9FEBD000000270020ED
:10271000F0B5F5B007460E4614463868407808A96B
:102720000875012506E0681E7968085C0DA9485502
:10273000681C85B2072DF6DD08220DA961A800F0FE
:1027400069FC1022414902A800F064FC61A80A90CB
:1027500002A808900220694688853D4809900790A4
:1027600007A801F067F800203055621C0CA930461C
:1027700001F054F8201D85B206E0281F201A0CA98C
:10278000085C3055601C84B2AC42F6DB2046E11791
:10279000090F091809110901611A1BD0254603E028
:1027A00000207055681C85B22046E117090F0918F2
:1027B00009110901611A1022511A0919A942EFDC05
:1027C000E117090F091809110901611A511A0919AC
:1027D0008CB201E0601C84B2E2B231464DA800F038
:1027E00019FC1B48099002A8089061A807904DA801
:1027F0000A902046E117890F091889030A0C6946D7
:102800008A85042008A9887307A801F0D1F8E01789
:10281000800F00198005020E61A90DA801300194F6
:1028200000F0D0FB9520000206900698C2B2214627
:102830000DA80130FFF7E6FE20460F380DAA8118DB
:102840001022034800F0E6FB75B0F0BD54020020F2
:102850007C050020F0B5FFB08AB005466F68787936
:102860000002397908430290B87800027978084369
:10287000019028680079C01FC2B2F91D75A800F048
:10288000C9FB10225A4903A800F0C4FB59480A901A
:1028900003A8099061A8089075A80B902968097988
:1028A000C81FC117890F091889030A0C69460A86CF
:1028B000002108A8817401F07BF82868417818A8E5
:1028C0000175012606E0701E6968085C1DA988551F
:1028D000701C86B2072EF6DD28680079C01F0090B4
:1028E000C017810F009808188005020E61A90DA875
:1028F00000F068FB082607E0304608380DA9085CA0
:102900001DA98855701C86B202980C308642F3DBF4
:10291000029801460C311DA800F06AFF002805D17D
:10292000354807900798FFF79BFE5EE03348007834
:10293000CE214843324940180E30324909780C22E2
:102940005143401841890198081880B201903B79A1
:102950000DAA052040030199FFF706F802981430EC
:10296000C4B22046E117890F091889108900611A3D
:1029700009D0E117890F091889108900611A04220A
:10298000511A0919CCB2002118A8017522461DA9B7
:1029900061A800F03FFB2868007910386A681118B8
:1029A00010225DA800F036FB75A8089003A80990D6
:1029B00061A80B900121684601865DA80A9008A8CD
:1029C00000F038FF082275A91DA800F0FBFA952039
:1029D000000207900798C2B208211DA8FFF712FE57
:1029E00010221DA9034800F015FB7FB00AB0F0BD0E
:1029F000540200207C0500201E95000021000020CC
:102A00000060000022000020F0B5C3B0044620683A
:102A10000079401EC2B26068411C33A800F0FAFA87
:102A2000102234491AA800F0F5FA23A81E9033A802
:102A30002190082120A801812F482090002120A862
:102A400081721AA81F901EA800F0B2FF20680079BA
:102A5000401E0190C017810F019808188005020ED2
:102A600023A90AA8023000F0ADFA2068417808A82E
:102A700001726068017808A8417222210AA800F05A
:102A8000B7FE002804D11D4F3846FFF7E9FD2FE0BF
:102A900000261B4800780002801986B26068007822
:102AA0000001801986B200250CE070190921090384
:102AB000401800780AAAA91C515C484002A9485550
:102AC000681C85B2102DF0DB08A8817E684601766F
:102AD00008A8C17E68464176102302AA3146092023
:102AE0000003FEF741FF95273F023846FFF7B8FD88
:102AF00043B0F0BD540200207C0500201E9500006C
:102B00002100002070B598B005466968481C18235C
:102B100008AA224901F00BFB122108A801F0D8FBFA
:102B2000002831D100241E4800780002001984B228
:102B3000686800780001001984B2102308AA2146B1
:102B400009200003FEF710FF15480078401C00061E
:102B5000040C2046103884B268680078001984B2EA
:102B60000920000320180078401C694608700123E2
:102B70006A46214609200003FEF7F6FE9526360236
:102B80003046FFF76DFD06E0064E3046FFF768FD64
:102B900000200549087118B070BD000054020020E3
:102BA000210000201E9500006E040020F0B599B0B1
:102BB00005466968481C182301AA3A4901F0B7FA8A
:102BC0000024394800780002001984B2686800784F
:102BD0000001001984B200260BE0A01909210903A5
:102BE0004018007801A9895D484011A98855701CDA
:102BF00086B2102EF1DB2D480078F0210840002825
:102C000014D168680078002808D16846017D10A8B2
:102C100001756846417D10A8417507E06846817DD1
:102C200010A801756846C17D10A84175122101A840
:102C300001F04EFB00282CD1122111A801F048FB15
:102C4000002826D1102311AA214609200003FEF7EF
:102C50008BFE15480078401C0006040C20461038F6
:102C600084B268680078001984B209200003201833
:102C70000078401CC0B2009001236A46214609201A
:102C80000003FEF771FE95273F023846FFF7E8FC88
:102C900006E0074F3846FFF7E3FC002005490871BE
:102CA00019B0F0BD5402002021000020208F000048
:102CB0001E9500006E04002030B591B00446616896
:102CC000481C182301AA084901F031FA102301AA6F
:102CD0000021D802FEF748FE95252D022846FFF771
:102CE000BFFC11B030BD000054020020F0B593B01D
:102CF00005462868067922480078CE2148432149B4
:102D000040180E30204909780C2251434018408960
:102D100012902868807800022968C978084307461D
:102D20001298381887B23C2E12DA002408E0E01915
:102D3000052149034018007801A90855601CC4B258
:102D4000B442F4DB0022314601A8FFF7B3FC14E0E3
:102D500032201190002408E0E019052149034018B1
:102D6000007801A90855601CC4B211988442F3DBB5
:102D70000022314601A8FFF79DFC13B0F0BD000012
:102D800021000020006000002200002070B50546F0
:102D900028688078042857D128680079072853D1FB
:102DA000002444E0CE20604347494018C079696858
:102DB0000978884239D1CE20604343494018007ACF
:102DC00069684978884230D1CE2060433E49401836
:102DD000407A69688978884227D1CE2060433A4991
:102DE0004018807A6968C97888421ED1CE20604335
:102DF00035494018C07A69680979884215D1CE20D2
:102E0000604331494018007B6968497988420CD198
:102E1000CE2060432C494018407B696889798842FC
:102E200003D12A480470052401E0601CC4B2042CBC
:102E3000B8DB052C04D109200003FFF711FC41E0A9
:102E40002348FFF70DFC3DE028688078002836D144
:102E500028680079022832D1002423E01B4800783A
:102E6000CE214843184940180E300C2161434018C8
:102E7000807869684978884212D114480078CE2158
:102E80004843114940180E300C2161434018C07866
:102E900069680978884203D10E480470112401E062
:102EA000601CC4B2102CD9DB112C04D10920000302
:102EB000FFF7D6FB06E00648FFF7D2FB02E0044826
:102EC000FFF7CEFB70BD0000006000002100002075
:102ED000826A00002200002070B504461148007884
:102EE000CE214843104940180E30104909780C2271
:102EF0005143401846892068807800022168C978CB
:102F000008430546A81985B220680379294605209B
:102F100040036268FEF728FD09200003FFF7A0FBCD
:102F200070BD000021000020006000002200002091
:102F30000C488068022108430A498860FDF798F927
:102F40000120C0030078FF2801D100F00FF800F045
:102F5000ABFD05E00448FFF72FFB034800F078FBCA
:102F6000F8E7000000D0004000000020002012E040
:102F70001249096802221143104A116000210122FE
:102F8000D203821811700D490968FD2211400B4AC5
:102F90001160411C88B21028EADB08490968022246
:102FA0001143064A11600F21054A1170034909684F
:102FB000FD221140014A11607047000000D000401E
:102FC000208F0000F0B503461446002200201EE0CA
:102FD00085004D592D0E1646571CFAB29D55850099
:102FE0004D592D022E0E1546571CFAB25E5585001E
:102FF0004D5B2D042E0E1546571CFAB25E5585000A
:103000004E5D1546571CFAB25E55451CE8B2A0420B
:10301000DEDBF0BDF0B503460024002025E02546A8
:10302000661CF4B24D5D2D0686009D5185005D59EC
:103030002646671CFCB28E5D3604354386009D51E2
:1030400085005D592646671CFCB28E5D360235430D
:1030500086009D5185005D592646671CFCB28E5D39
:10306000354386009D51451CE8B2D617B60FB618F9
:10307000B6108642D3DCF0BD0A6802604A6842603E
:103080008A688260CA68C26070470000F1B5FFB00C
:1030900089B000208490FE48407900287ED1FC4809
:1030A000807802287BD18898476800242BE0F94873
:1030B0000078CE214843F84940180E300C21614376
:1030C00040184078397888421BD1F2480078CE21E8
:1030D0004843F14940180E300C216143405C002800
:1030E0000BD0EC480078CE214843EB4940180E3015
:1030F0000C216143405C012803D1E8490C70112484
:1031000001E0601C84B2102CD1DB112C6CD1E148A1
:103110000078CE214843E04940180E30DF49097855
:103120000C22514340188079F0210840E0280FD04C
:10313000D8480078CE214843D74940180E30D749A7
:103140000978514340184079F0210840E02854D1D3
:103150003D79797909020D43002D1ED10120D04916
:103160000870CC480078CE214843CB4940180E3037
:10317000CA4909780C2251434018C579C5480078DE
:10318000CE225043C44A80180E30C44A12780C2311
:103190005A438018007A0002054301E03DE136E120
:1031A000BC480078CE214843BB4940180E30BB498B
:1031B00009780C225143401840898590B878000264
:1031C0007978084306468598301886B2FF2D0CDDC5
:1031D000052149037018AF22FF21FFF713FA0120E0
:1031E000AB494871FF208490D6E10521490370184E
:1031F00000222946FFF706FACEE1A6480078CE2144
:103200004843A54940180E30A44909780C2251437F
:1032100040188079F0210840F02815D19D480078A9
:10322000CE2148439C4940180E309C4909785143AF
:1032300040184079F0210840F02805D1994887903E
:103240008798FFF70DFAA7E191480079022872D11B
:1032500090480078CE2148438F4940180E308F495E
:1032600009780C22514340188079F02108408E499A
:1032700009780901884212D086480078CE21484357
:10328000854940180E3085490978514340184079E6
:10329000F02108408449097809018842D7D13D7955
:1032A000797909020D43002D1BD17A480078CE218F
:1032B0004843794940180E30784909780C22514327
:1032C0004018C57973490978CE225143724A89184A
:1032D0000E31724A12780C235A438918097A09026E
:1032E0000D436C480078CE2148436B4940180E309E
:1032F0006A4909780C225143401840898590B87872
:1033000000027978084306468598301886B2FF2D6A
:1033100022DD052040033018302304AA013263491E
:10332000019000F02EFFAF22302104A80130FFF7FA
:1033300069F9002408E063E02046293004A9085C0C
:1033400002A90855601C84B2082CF5DB0220504904
:103350004871302084901FE1002408E030190521D5
:1033600049034018007844A90855601C84B2AC4257
:10337000F4DB48480078CE2148434749401800799B
:103380000011082809D043480078CE21484342491B
:103390004018007900110A2805D12A4644A98898C6
:1033A000FFF7B6F9F8E044A8021944A9601C081810
:1033B00023460146019044A800F048FBA81C85B2B2
:1033C0006807400F002805D02C460720C043204046
:1033D000083085B204E0002044A90855601C84B27E
:1033E000AC42F8DBE3B204AA0132304944A800F051
:1033F000C8FE0022214604A80130FFF703F9CBE004
:103400002848113087908798FFF72AF9C4E02548AB
:1034100087908798FFF724F9BEE01D48407901287E
:1034200024D13046323086B284983230A8420EDA47
:10343000052149037018AF223221FFF7E3F8849881
:10344000323080B28490012011494871A4E0849800
:10345000281A85B205214903701800222946FFF772
:10346000D1F8002084900A49487195E008484079D5
:1034700002283FD18498301880B2869084983630E4
:10348000A84238DA302000900521490386980FE0E1
:103490006E040020210000200060000022000020B7
:1034A0002A0000209D9500002000002054020020EA
:1034B000401804AB01333A4A0146019002A800F0DB
:1034C00027F9AF22302104A80130FFF79BF8002430
:1034D00007E02046293004A9085C02A90855601CB1
:1034E00084B2082CF5DB02202E49487184983030D4
:1034F00080B2849050E08498281A85B2002409E0B4
:1035000086980019052149034018007844A90855F8
:10351000601C84B2AC42F3DB8498281883B244A8C0
:103520000219611C401801900520400330180090DA
:10353000019900F08BFAA81C85B26807400F00289B
:1035400017D02C460720C0432040083085B21648CB
:103550000078002805D080222046611C8CB244A946
:103560000A5404E0002044A90855601C84B2AC420F
:10357000F8DBE0B204AB0133094A44A9009002A889
:1035800000F0C6F80022214604A80130FFF73AF8FF
:1035900000200449487184907FB00AB0F0BD00005B
:1035A000540200206E0400202A00002070B504465A
:1035B00000256068007800280CD1606840780028F9
:1035C00008D160688078002804D1052501201C49B5
:1035D000887025E022E0CE2068431A49085C6168C3
:1035E0000978884218D1CE2068431649401840789F
:1035F0006168497888420FD1CE206843114940184C
:10360000807861688978884206D10F490D70022060
:103610000B498870052501E0681C85B2042DDADBB2
:10362000052D08D1952636023046FFF719F80020FF
:103630000349087103E0054E3046FFF711F870BDED
:103640006E0400200060000021000020A095000012
:1036500010B50446124800680078902804D010483D
:1036600000680078C02803D10D48FEF753F815E034
:103670000B4800680078002803D10948FEF72CF8B1
:103680000CE0074800680078512803D10448FEF791
:10369000C3F803E037204002FEF7E2FF002010BD30
:1036A00000000020FFB582B00E461F466A46304635
:1036B000049900F027FD002407E00298005D6946A8
:1036C000095D48403855601CC4B2082CF5DB002564
:1036D00017E03146083148196A46049900F012FD96
:1036E000002409E06019305C6946095D48406119B1
:1036F00008317854601CC4B2082CF3DB284608302B
:10370000C5B2284608300B998842E2DB06B0F0BD0E
:10371000FFB582B00F461E46002407E00298005D08
:10372000395D484069460855601CC4B2082CF5DB79
:1037300032466846049900F0E5FC002518E00024B4
:103740000AE06019305C214608314919795C48402B
:1037500069460855601CC4B2082CF2DB30460830BC
:1037600042196846049900F0CDFC28460830C5B2DD
:10377000284608300B998842E1DB06B0F0BD000016
:1037800070B504460D461848806820263043164E12
:10379000B0600320154E70600120306030468460B8
:1037A00000203060002103E0685C104EB060491CCE
:1037B0009942F9DB0D488068000ED0700B48806894
:1037C0000002000E9070094880680004000E5070DE
:1037D00006488068107004488068DF263040024E3A
:1037E000B060002070BD000000D0004000700040BC
:1037F00078B506460D462A466946304600F00EF872
:10380000002407E06846005D002801D0002078BD54
:10381000601CC4B2042CF5DB0120F8E770B5044647
:103820000D46164633462A4621460020C043FFF780
:10383000A7FF70BDF0B5BBB00546002016905048FC
:103840008068102108434E49886004204D49087063
:10385000288A012800D101E0288A8000C4B204220D
:103860002FA86968FFF7AEFB33AA37A92FA8FDF789
:103870009BFA20460F30C117090F09180E11002EB0
:1038800003D10126012016900BE02046E117090F15
:10389000091809110901611A01D0012100E0002174
:1038A0001691042206A8E968FFF78CFB16980028F9
:1038B00008D1701E000106AA811837AA2BA8FCF7B0
:1038C00021FD13E0E117090F091909110901611A16
:1038D000CAB2711E090106ABC81817A90194FDF7F9
:1038E000C0FA33AA17A92BA8FCF70CFD042202A8E2
:1038F000A968FFF767FB02A927A8FCF7D5FC0027FA
:1039000019E0BA01E868811827AA23A8FCF7FAFC95
:10391000686800F039F8102227A91FA8FFF77AFB82
:10392000102223A91BA8FFF775FB1BA91FA8FCF7F2
:1039300067FC781CC7B2701EB842E2DC2BAA27A92C
:1039400023A8FCF7DFFC102227A91FA8FFF762FBC2
:10395000102223A91BA8FFF75DFB1BA91FA8FCF7DA
:103960004FFC1FA92868FFF787FB00200549087056
:1039700003488068EF210840014988603BB0F0BDF2
:1039800000D0004000B00040084AC1685161816821
:1039900091614168D1610168116200BF03490978F2
:1039A000022211400029F9D07047000000B0004009
:1039B00070B50446208AC117890F09188D10A668B2
:1039C0001F488068102108431D498860A07C00289A
:1039D00002D11C49087002E004201A49087060688E
:1039E000FFF7D2FF1FE0A07C00280AD11648E1684B
:1039F000FCF706FC144A3146206800F071FBE668CB
:103A000009E031461048E26800F06AFB0E49206880
:103A1000FCF7F6FB2668206810302060E068103064
:103A2000E060681E85B2002DDDDC002005490870CD
:103A300003488068EF2108400149886070BD00009C
:103A400000D0004000B000403402002070B50446B1
:103A5000124DAD6820263543104EB5600125104E3D
:103A6000756035600F4DB56000253560002003E0BE
:103A7000255C0B4EB560401C9842F9DB084DAD68E3
:103A80002D042D0E0D70064DAD681570034DAD68FB
:103A9000DF263540014EB56070BD000000D000400B
:103AA0000070004063630000012005498870002019
:103AB000C870087148718871024908707047000029
:103AC0006E0400202A00002009494969012211439F
:103AD000074A51610121074A516030BF04494969D1
:103AE00049084900024A51610249C968018070478A
:103AF00000D00040003000400349C8600321024A62
:103B0000516030BF7047000000300040F0B5C9B0D0
:103B1000054600204490FE488079002875D1FC4875
:103B20008078022872D16868489000262CE0F94815
:103B30000078CE214843F84940180E300C217143DB
:103B4000401841784898007881421BD1F1480078AC
:103B5000CE214843F04940180E300C217143405C9F
:103B600000280BD0EB480078CE214843EA494018A2
:103B70000E300C217143405C012803D1E7490E70DF
:103B8000112601E0701C86B2102ED0DB112E7DD1E3
:103B900048988078000248994978084346904898A8
:103BA00040790402489909790C43DA480078CE211B
:103BB0004843D94940180E30D84909780C2251435E
:103BC0004018007A0002D3490978CE225143D24AE4
:103BD00089180E31D14A12780C235A438918C979B1
:103BE000084347904698001986B248988079002883
:103BF00006D14898C078002802D14798864206DD51
:103C0000C74F3846FEF72CFD5CE2D6E1CFE1C14854
:103C10000078CE214843C04940180E30BF4909788A
:103C20000C225143401880790007000F0E281FD046
:103C3000B8480078CE214843B74940180E30B749FC
:103C40000978514340184079F0210840E0280FD00E
:103C5000B0480078CE214843AF4940180E30AF49F4
:103C600009785143401800798007800F002861D1FE
:103C700028680179E01D81422FDAA6480078CE211C
:103C80004843A54940180E30A44900E089E109786D
:103C90000C22514340184089459046994598081890
:103CA00080B2469028680079C01F80B24490489A3C
:103CB000D21D05204003449B4699FDF755FE4699C9
:103CC0004498081880B24690954F31373846FEF731
:103CD000C7FC01208E498871F4E128680179E01D54
:103CE000814222D1E82C20DC8A480078CE2148434A
:103CF000894940180E30894909780C2251434018EF
:103D00004089459046994598081880B246902346C8
:103D1000489AD21D052040034699FDF725FE9527B8
:103D20003F023846FEF79CFCCCE17D4F3846FEF75B
:103D300097FCC7E177480078CE2148437649401880
:103D40000E30764909780C225143401880790007DB
:103D5000000F0F2815D16F480078CE2148436E49D7
:103D600040180E306D490978514340184079F021D0
:103D70000840F02805D16A4F1F373846FEF770FC1F
:103D8000A0E16348007902287ED162480078CE2104
:103D90004843614940180E30604909780C2251436C
:103DA000401880790007000F5E490978884212D0D8
:103DB00058480078CE214843574940180E3057499B
:103DC0000978514340184079F02108405549097855
:103DD00009018842D8D1544804804E480078CE2149
:103DE00048434D49401800790011082809D0494836
:103DF0000078CE21484348494018007900110A282C
:103E000014D1201D84B22046E117090F09180911A9
:103E10000901611A15D0E117090F091809110901E3
:103E2000611A1022511A09198CB20AE0A01C84B23E
:103E30006007400F002804D02046F82108400446BF
:103E4000083428680179E01D814247DA314800785A
:103E5000CE214843304940180E30304909780C22B1
:103E6000514340184089459046994598081880B2BA
:103E7000469028680079C01F80B244904498C3B22D
:103E800004AA2A49489800E085E0C01D00F04FF9D7
:103E90004498083880B24790002608E04798811976
:103EA0004898C01D405C02A98855701C86B2082E37
:103EB000F4DB04AA05204003449B4699FDF754FD1A
:103EC00044994698401880B24690154F313738468D
:103ED000FEF7C6FB02200E498871F3E028680179DD
:103EE000E01D814252D1E82C50DC0A480078CE21F6
:103EF0004843094940180E30084909780C225143BB
:103F000040184089459046994598081880B20FE0BE
:103F10006E0400202100002000600000220000202C
:103F20007E95000020000020240000205402002084
:103F3000469065480078CE2148436449401800798E
:103F40000011082809D060480078CE2148435F4915
:103F50004018007900110A2803D12846FEF77AFCA0
:103F6000B0E0E3B204AA5A494898C01D00F0DFF857
:103F70004898037904AA052040034699FDF7F4FC0C
:103F800095273F023846FEF76BFB9BE0514F3846C2
:103F9000FEF766FB96E04F4F30373846FEF760FB82
:103FA00090E04C4F72373846FEF75AFB8AE0494F93
:103FB0001F373846FEF754FB84E0474880790028D5
:103FC00045DD2868017944980818A04240DA424843
:103FD0008079022822D128680079009004AB3C4AFD
:103FE00002A86968FFF75EFB2868037904AA052028
:103FF00040034699FDF7B8FC28680079083880B27C
:104000004790002607E0696847988019085C02A974
:104010008855701C86B2082EF5DB07E02868037906
:104020006A68052040034699FDF79EFC28680179DF
:104030004498081880B24490286801794698081876
:1040400080B24690234F31373846FEF709FB39E0FE
:104050002868017944980818A0422FD11E48807919
:1040600002281AD128680079009004AB184A02A8E7
:104070006968FFF717FB2868067918480088201A36
:1040800080B247904798301A86B2334604AA05207A
:1040900040034699FDF768FC07E0286803796A68E1
:1040A000052040034699FDF75FFC95273F023846FF
:1040B000FEF7D6FA00200849887103E0054F38461C
:1040C000FEF7CEFA49B0F0BD2100002000600000EC
:1040D000540200207E9500006E0400202400002081
:1040E00010B50B681468634003604B685468634004
:1040F00043608B68946863408360CB68D468634096
:10410000C36010BD7CB505460C4616466A4621467E
:10411000284600F09FF86A4621460831684600F0BC
:104120005BF832462146684600F094F87CBDFFB546
:1041300082B0064617463A4630460399FFF7E2FF3B
:10414000002517E03146083148196A460399FFF700
:10415000D9FF002409E06019305C6946095D4840D8
:10416000611908317854601CC4B2082CF3DB28466E
:104170000830C5B22846083005998842E2DB06B00F
:10418000F0BDFFB582B00746164632463846039961
:10419000FFF7B8FF002518E000240AE06019305C42
:1041A000214608314919795C484069460855601C28
:1041B000C4B2082CF2DB3046083042196846039935
:1041C000FFF7A0FF28460830C5B2284608300599F9
:1041D0008842E1DB06B0F0BD30B503461B4CA46855
:1041E00008252C43194DAC600624194D2C60002085
:1041F00004E00C5C164D6C60441CE0B20828F8DB4F
:104200000424134D2C60002004E01C5C104D6C60F5
:10421000441CE0B20828F8DB05240D4D2C6000BFDB
:104220000B4C2468E407E40F002CF9D0002004E0D4
:10423000074CA4681454441CE0B20828F8DB034C73
:10424000A468F7252C40014DAC6030BD00D0004083
:1042500000A0004030B503461B4CA46808252C4341
:10426000194DAC600224194D2C60002004E00C5C58
:10427000164D6C60441CE0B20828F8DB0024134D96
:104280002C60002004E01C5C104D6C60441CE0B20B
:104290000828F8DB01240D4D2C6000BF0B4C24686E
:1042A000E407E40F002CF9D0002004E0074CA468D8
:1042B0001454441CE0B20828F8DB034CA468F7252A
:1042C0002C40014DAC6030BD00D0004000A000404B
:1042D00070B502460B4601200E4E706030600E48ED
:1042E000B06000203060002103E0505C094EB060F7
:1042F000491C9942F9D307488068C0B205120548A5
:104300008068C4B2002D03D1002C01D1002070BD03
:104310000120FCE700700040636300003C430000A4
:104320000000002034000000040100007043000081
:1043300034000020FC1500002001000000000000F7
:10434000000000000000000000000000000000006D
:1043500000000087000000000000000000000000D6
:10436000000000000000000000000000000000004D
:04000005000000C136
:00000001FF
