:020000040000FA
:100000003016002065010000690100006B0100004E
:1000100000000000000000000000000000000000E0
:100020000000000000000000000000006D01000062
:1000300000000000000000006F01000071010000DE
:1000400073010000730100007301000073010000E0
:1000500073010000730100007301000073010000D0
:1000600073010000730100007301000073010000C0
:1000700073010000DD040000E9040000C503000076
:10008000F503000001040000C1030000730100003B
:100090007301000073010000730100007301000090
:1000A0007301000073010000730100007301000080
:1000B0007301000073010000730100007301000070
:1000C00000F002F800F03EF80CA030C80838241800
:1000D0002D18A246671EAB4654465D46AC4201D180
:1000E00000F030F87E460F3E0FCCB6460126334274
:1000F00000D0FB1AA246AB463343184734450000F4
:1001000054450000103A02D378C878C1FAD8520793
:1001100001D330C830C101D504680C6070470000BD
:100120000023002400250026103A01D378C1FBD813
:10013000520700D330C100D50B6070471FB51FBDFB
:1001400010B510BD00F029F81146FFF7F7FF03F0D6
:1001500063F800F041F803B4FFF7F2FF03BC00F0CE
:1001600047F8000006480047FEE7FEE7FEE7FEE727
:10017000FEE7FEE703480449044A054B70470000C8
:10018000C100000030060020301600203012002090
:1001900030120020704770477047754600F024F811
:1001A000AE46050069465346C008C000854618B0F3
:1001B00020B5FFF7DFFF60BC00274908B6460026E0
:1001C000C0C5C0C5C0C5C0C5C0C5C0C5C0C5C0C507
:1001D000403D49008D46704710B50446C046C046B4
:1001E0002046FFF7B8FF10BD00487047CC0500203F
:1001F00001491820ABBEFEE7260002007047000050
:100200000E4BCA685A608A689A604A68DA600A685F
:100210001A6100BF094A1278D207D20F002AF9D01A
:10022000064A5268C260054A92688260034AD268F0
:100230004260024A126902607047000000B000404C
:10024000F0B589B005466878C0210840074668784F
:100250008006800E0690C02F44D1069801281FD139
:10026000297868460172E1214172A9788172E978A2
:10027000C1720026002404E002A8005D4640601C14
:1002800084B2042CF8DB68460673002405E002A95A
:10029000085D02F089FF601C84B2052CF7DB87E063
:1002A000069800281DD1297868460172E021417224
:1002B000A97881720026002404E002A8005D46406F
:1002C000601C84B2032CF8DB6846C672002405E08B
:1002D00002A9085D02F068FF601C84B2042CF7DB01
:1002E00066E065E0802F63D0E81C0790401D089011
:1002F00007980078902803D007980078C02803D189
:1003000007A801F0FFFA53E007980078002803D10E
:1003100007A801F0D9FA4BE007980078512843D19B
:1003200007984078022809D1052023490860102148
:10033000224801F011FC00201F490860079840780E
:1003400003281AD1472040028079FF2804D0472093
:100350004002807900280BD107980079082807DC33
:1003600007980379002147204002089A01F0F6FB24
:100370000920000302F038FA1AE0079840780428B0
:100380000DD10798807800020799C978401801902C
:10039000079801790022019802F0BAF908E06D206F
:1003A000000202F021FA03E03720400202F01CFABA
:1003B000002009B0F0BD000000D0004055550000FD
:1003C0007047000003484068C007C00F01494860FB
:1003D0007047000000D0004010B50548806801213A
:1003E000084303498860112000F02CF810BD00007C
:1003F00000D00040002001498860704700C00040E4
:10040000002001498860704700C000400120074972
:100410004860002006498860064948600648074948
:1004200008600420064908617047000000D00040C1
:1004300000C000400030004000E1020000E100E0A8
:1004400000ED00E00521134A116094280AD004DC75
:10045000112818D0182815D10CE0952806D0962818
:1004600010D10BE03F210B4AD16011E01F21094A56
:10047000D1600DE01E21074AD16009E00F21054A35
:10048000D16005E000BFFF217431024AD16000BF96
:1004900000BF704700C000400A7802704A7842707E
:1004A0008A788270CA78C2700A7902714A79427178
:1004B0008A798271CA79C2710A7A02724A7A427260
:1004C0008A7A8272CA7AC2720A7B02734A7B427348
:1004D0008A7B8273CA7BC273704700000020014987
:1004E0004860704700300040002001494860704774
:1004F0000030004070B504461C480078012819D12E
:1005000002F09EFD207002F09BFD607002F098FDED
:10051000A070002505E002F093FDE11C4855681C21
:10052000C5B2A078A842F6DC02F08AFDFF210431B2
:10053000085518E002F084FD607002F081FDA070A3
:10054000002505E002F07CFDE11C4855681CC5B2A1
:10055000A078A842F6DC02F073FDFF2104310855B3
:10056000012002490870002070BD00001800002022
:1005700001F09CFE05E00348FFF7BCFF0148FFF7D0
:100580005FFEF8E77804002038B51B4D002405E035
:100590001A49085D02F008FE601CC4B2092CF7D3AA
:1005A00002F04EFD694608700878FF281DD101242D
:1005B00005E002F045FD69460855601CC4B2042CF4
:1005C000F7DB01F0F9F8002405E06946085D02F068
:1005D000EBFD601CC4B2042CF7DB69468878FFF79A
:1005E00031FF01200649087005E068460078287050
:1005F00000200349087038BD78040020244600001C
:100600001800002030B50346002005E00C5C155CA6
:100610006C401C54441CE0B21028F7DB30BD30B4F1
:100620007446641E2578641CAB4204D3635D5B0092
:10063000E31830BC18471D46F8E70000F0B5C3B01A
:10064000074698480079002803D096480079022888
:100650007CD17868007894490870924880780128A5
:1006600003D108460078002810D08E4880780228F0
:1006700066D18E480078CE2148438D4940180079D4
:100680000007000F88490978884259DD854880783D
:1006900001280CD1002407E00120C00320180078B5
:1006A00084490855601C84B2102CF5DB21E07D489C
:1006B000807802281DD1002042907C4800780102F9
:1006C0004298081880B24290774800780101429819
:1006D000081880B24290002409E0429800190921CC
:1006E00009034018007873490855601C84B2102C27
:1006F000F3DB6C488078012803D06A4880780228B0
:1007000019D16D488068042108436B4988606B49A2
:10071000082001F041FD08236A466649674803F056
:10072000B4FE01205F490871AF220821684601F03C
:10073000EFFFB4E00AE0624E304602F055F8AEE05A
:100740005F4E5D3E304602F04FF8A8E05548007914
:1007500001286ED110236A465649786803F06BFE73
:10076000002500240CE0204608306946095C534A05
:10077000601C105C814201D1681C85B2601C84B28F
:10078000072CF0DB072D7DD16846C07B4B490978EB
:10079000884277D1002405E06846005D4949085544
:1007A000601C84B2042CF7DB002406E04348015DA2
:1007B000444A201D1154601C84B2042CF6DB002531
:1007C00000240BE03B48015D024620460830105CE7
:1007D000814201D1681C85B2601C84B2082CF1DB17
:1007E000082D18D1002407E06846015D354A2046EF
:1007F00008301154601C84B2042CF5DB002407E09F
:100800002E48015D2F4A20460C301154601C84B2E2
:10081000042CF5DB18E0002407E06946201D095C84
:10082000284A001D1154601C84B2042CF5DB0024FE
:1008300008E030E02149201D095C224A08301154AB
:10084000601C84B2042CF5DB002406E06946601CC1
:10085000085C40A90855601C84B2072CF6DB68468A
:10086000017840A8C17108236A46124903F00DFEC1
:1008700000220821684601F04BFF02200949087157
:100880000DE0FFE70E4E1136304601F0ADFF0020BF
:100890000449087103E00A4E304601F0A5FF43B059
:1008A000F0BD00006E040020220000202300002084
:1008B00000600000BC05002000D000401A000020AD
:1008C0009D95000054020020F0B5FFB09CB0064694
:1008D000C1480079002803D0BF48007902287DD1A3
:1008E00070680078BD490870BB488078012803D142
:1008F00008460078002810D0B748807802286ED1CA
:10090000B7480078CE214843B6494018007900071F
:10091000000FB2490978884261DDAF48807801282C
:100920000CD1002407E00120C0032018007801A9A1
:100930000855601C84B2102CF5DB21E0A6488078B5
:1009400002281DD100205590A54800780102559835
:10095000081880B25590A1480078010155980818F0
:1009600080B25590002409E0559800190921090327
:100970004018007801A90855601C84B2102CF3DBE4
:1009800095488078012803D093488078022845D183
:10099000002405E00020A100934A5050601C84B25E
:1009A000042CF7DB9149102001F0F6FB10228F494F
:1009B0008F4802F0B3FC102201A98E4802F0AEFC71
:1009C00056A896908A489990042190A80185864857
:1009D00098908848979098A8817201E02AE023E0D7
:1009E00096A803F069F9002407E0A00056A908586A
:1009F000A1007D4A5050601C84B2042CF5DB7E4D72
:100A0000042256A909A802F061FCEAB2102109A843
:100A100001F07EFE012070490871DAE0764D123D4A
:100A2000284601F0E1FED4E0734D6F3D284601F009
:100A3000DBFECEE068480079012876D13068027983
:100A400011A8716802F06AFC102201A9694802F03D
:100A500065FC56A896906748979011A899903168C0
:100A60000879C117890F0918891090AA11850020EB
:100A700098AA90725C48989096A803F01DF9306887
:100A800000790090C017810F00980818821056A9AD
:100A900009A802F01BFC002700240CE020461030BF
:100AA00009A9095C514A601C105C814201D1781C83
:100AB00087B2601C84B20F2CF0DB0F2F7BD110A803
:100AC000C0784A490978884275D1002405E009A810
:100AD000005D4A490855601C84B2042CF7DB0024F1
:100AE00006E04248015D454A201D1154601C84B255
:100AF000042CF6DB002408E009A920460C30095C30
:100B00003E4A001F1154601C84B2042CF4DB002404
:100B100007E0364920460C30095C384A1154601C05
:100B200084B2042CF5DB002407E04DE009A9601C29
:100B3000085C05A90855601C84B20F2CF6DB08A8D8
:100B40000179C170102205A951A802F0E7FB3068B5
:100B50000079103872681118102211A802F0DEFB1B
:100B600056A896902348979051A89990042190A850
:100B7000018598A8817211A8989096A803F09CF816
:100B8000042256A909A802F0A1FB95252D02EAB27C
:100B9000102109A801F0BCFD02200F4908710024B2
:100BA00006E008E00020A1000F4A5050601C84B20B
:100BB000042CF7DB0DE0104D6D1E284601F014FEED
:100BC00000200549087104E00B4D123D284601F054
:100BD0000BFE7FB01CB0F0BD6E0400202200002090
:100BE00023000020006000007C050020AC050020F0
:100BF0009C0500208C050020AF95000054020020C9
:100C0000F0B591B006465C48807802287DD1002579
:100C100014E05A480078CE214843594940180E3014
:100C20000C2169434018407871680978884203D1E3
:100C300054490D70112501E0681C85B2102DE8DBC8
:100C4000112D7DD14D480078CE2148434C494018A4
:100C50000E304C4909780C22514340184079000766
:100C6000000F0E281ED145480078CE214843444944
:100C700040180E304349097851434018001D109028
:100C8000D7021098C01B80B210907068421C0323DA
:100C90005803109900F062FF95242402204601F0C9
:100CA000A3FD66E035480078CE214843344940181A
:100CB0000E30344909780C2251434018407900071E
:100CC000000F0F2804D1304C204601F08DFD50E07C
:100CD0002948007902283CD128480078CE21484391
:100CE000274940180E30274909780C2251434018F3
:100CF00040790007000F25490978884229D1716899
:100D0000481C082301AA224900E02EE003F093FBCF
:100D10001A480078CE214843194940180E30194925
:100D200009780C2251434018001D1090D7021098EA
:100D3000C01B80B21090032301AA5803109900E051
:100D40000DE000F00BFF95242402204601F04CFD3D
:100D50000FE00D4C1134204601F046FD09E00A4C2D
:100D60005334204601F040FD03E0074C204601F0DB
:100D70003BFD11B0F0BD00006E04002023000020F8
:100D800000600000240000209D950000220000204B
:100D90005402002070B5054675488078012803D1BB
:100DA0006868007800280ED07148807802287DD1CC
:100DB000686801786F480078CE2250436E4A8018E8
:100DC0000079814272DA6A48807801282CD16B4818
:100DD0000078C007C00F002820D06548007902289D
:100DE00017D164480078CE21484363494018007900
:100DF000001108280CD05F480078CE2148435E4996
:100E00004018007900110A28F4D0284602F0AEF804
:100E1000ACE05B4C204601F0E7FCA7E0584C113CED
:100E2000204601F0E1FCA1E05148807802287DD104
:100E300050480078CE2148434F494018C078F021EF
:100E40000840F02803D06868007800280ED149488F
:100E50000078CE21484348494018C078C007C00FE9
:100E6000002872D06868007800286ED14048007968
:100E700002282AD16868007842490978884224D13A
:100E80003C480078CE2148433B494018C078F021C7
:100E90000840E02819D137480078CE214843364928
:100EA000401800790011082860D000E059E031486E
:100EB0000078CE21484330494018007900110A28B3
:100EC00054D0284601F078FF50E0294800790228E4
:100ED00035D128480078CE21484327494018C078AA
:100EE000F0210840E0282AD022480078CE2148434B
:100EF00021494018C078F0210840224909788842E9
:100F00001DD11C480078CE2148431B494018007968
:100F10000011082809D017480078CE214843164907
:100F20004018007900110A2805D100E013E0284696
:100F300001F0C4FE1AE0284601F092FF16E0104CC2
:100F4000204601F051FC11E0FFE70D4C113C20461A
:100F500001F04AFC0AE00A4C113C204601F044FC36
:100F600004E0074C6E3C204601F03EFC70BD0000E2
:100F70006E0400202300002000600000208F00008D
:100F8000AE9500002200002070B594B006460C46D5
:100F900015461022314608A802F0C0F910221C495B
:100FA00004A802F0BBF908A802F072FE04A9684682
:100FB000FFF726F90422694610A802F087F910A865
:100FC000007880210840002804D1214610A800F0B4
:100FD00023F808E00CA910A800F01EF80D4A0CA98F
:100FE0002046FFF70FFB207880210840002804D11D
:100FF0002946204600F010F808E00CA9204600F031
:101000000BF8044A0CA92846FFF7FCFA14B070BD8F
:10101000440200200800002030B5024600231020C2
:101020000CE0441EE0B2145C6406240E0C540C5C0C
:101030001C430C54145C80252C40E3090028F0D19B
:1010400030BD30B50346002003E01C5C0C54441C4A
:10105000E0B29042F9DB80248C54002005E00025AA
:101060008418641C0D55441CE0B20F24A41A844259
:10107000F5DC30BDFEB505460027002400200090B9
:101080002BE0CE2060434849085C002801D10120B4
:1010900000E00020CE216143434A891849780029A5
:1010A00001D1012100E000210840CE2161433E4AE8
:1010B00089188978002901D1012100E00021084028
:1010C00000900098002803D0E0B20190052404E0CD
:1010D000601C84B23846CE3087B2042CD1DB04D1F8
:1010E000324E304601F080FB5DE0052C5BD1686834
:1010F0000078002809D168684078002805D1686820
:101100008078002801D1062432E0002400200090DD
:101110002CE0CE2060432449085C69680978884245
:1011200001D1012000E00020CE2161431E4A891830
:1011300049786A685278914201D1012100E000218A
:101140000840CE216143184A891889786A689278E4
:10115000914201D1012100E0002108400090009857
:10116000002801D0062401E0601C84B2042CD0DBEE
:10117000062C05D10D4E1036304601F035FB12E03D
:10118000286803793946032040036A6800F0E6FCCA
:101190000749019808700220064988709526360292
:1011A000304601F021FBFEBD00600000CE9500003E
:1011B000230000206E040020F0B595B0064630688C
:1011C0004078CD2808D070680078072804DDFE4FED
:1011D000384601F009FBE7E2FC48807802287CD120
:1011E00000257068007800283AD136E0F848007889
:1011F000CE214843F74940180E300C21694340186E
:10120000407871680978884226D1F1480078CE216B
:101210004843F04940180E300C21694340181390A0
:10122000032464031398001B1390002014900024DF
:101230000BE0139800190321490340180078002897
:1012400002D11498401C1490641C0C2CF1D31498F7
:101250000C2802D0112500E06D1C102DC6D314E01F
:1012600011E0DB480078CE214843DA4940180E30BF
:101270000C2169434018407871680978884201D18F
:10128000112500E06D1C102DEBD330684078CD287F
:1012900027D1102D25D1002521E0CD480078CE2181
:1012A0004843CC4940180E300C21694340188078DF
:1012B00071684978884211D1C5480078CE214843E9
:1012C000C44940180E300C2169434018C078716839
:1012D0008978884202D1112501E060E26D1C102D51
:1012E000DBD3102D7CD1002529E0B9480078CE2130
:1012F0004843B84940180E300C21694340181390F8
:10130000032464031398001B1390002014900024FE
:101310000BE01398001903214903401800780028B6
:1013200002D11498401C1490641C0C2CF1D3149816
:101330000C2803D1A8490D70112500E06D1C102D5B
:10134000D3D3A548007800284BD1A14800780028C5
:1013500002D1A249088004E1002500240FE09C4846
:101360000078401ECE2148439A4940180E300C2187
:10137000694340184078002800D0641C6D1C102D73
:10138000EDD3641E92480078401ECE214843914917
:1013900040180E300C216143401840898F49088065
:1013A0008B480078401ECE2148438A4940180E30B1
:1013B0000C2161434018007A050285480078401EE0
:1013C000CE225043834A80180E300C22624380188C
:1013D000C079054381480088401980490880C0E0F1
:1013E000D8E17B480078CE2148437A4941180E3134
:1013F00079480078401E0C225043085C0300FFF738
:101400000EF9050437657879AE0071480078CE2171
:101410004843704941180E316F480078401E0C2235
:101420005043081840896D49088069480078CE21EA
:101430004843684941180E3167480078401E5043C0
:101440000818007A040262480078CE225043614AAC
:1014500082180E3260480078401E0C235843101842
:10146000C07904435D48008800195C49088077E032
:1014700057480078CE214843564941180E31564806
:101480000078401E0C2250430818039003984189AD
:101490000089814204DD039840895049088003E0B7
:1014A000039800894D4908800398807900020399C8
:1014B000497908430446494800880019474908808B
:1014C0000846008800194649088049E040480078ED
:1014D000CE2148433F4941180E313F480078401E15
:1014E0000C225043081802900298408A3B49088019
:1014F00036E000BF36480078CE21484335494118D0
:101500000E3135480078401E0C22504308180190D7
:10151000039841890089814204DD039840892F495D
:10152000088003E0039800892C490880002511E019
:1015300001988079000201994979084304462748B7
:1015400000880019254908800846008800192449A8
:1015500008806D1C0198007AA842E9D800E000BF1D
:1015600000BF30684078CB2865D004DCC0287DD02F
:10157000C1287CD1B0E0CC287AD0CD28F9D1306810
:101580000079072835D10021684601747068017818
:101590006846417400218174C174012405E07068BB
:1015A000015D04AAE01C1154641C072CF7D30B48FE
:1015B0000088011204AAE01C115408480178201D7B
:1015C0001154601D83B20DE0CE9500006E04002022
:1015D00023000020006000002E00002030000020CA
:1015E00032000020139881B20320400300F0B6FAC5
:1015F00020E0002069460874002405E07068015D61
:1016000004AA601C1154641C30680079A042F5D80B
:1016100066480088011204AA601C115463480178CE
:10162000A01C1154E01C83B2139881B20320400324
:1016300000F094FAA7E0012069460874002405E050
:101640007068015D04AA601C1154641C3068007944
:10165000A042F5D855480088011204AA601C115414
:1016600052480178A01C1154514802E05FE089E023
:1016700010E000880112E01C11544D480178201D33
:101680001154E01C83B2139881B20320400300F090
:1016900065FA78E0022069460874002405E0706865
:1016A000015D04AA601C1154641C30680079A042DA
:1016B000F5D83E480088011204AA601C11543B482A
:1016C0000178A01C1154E01C83B2139881B203204E
:1016D000400300F043FA56E00320694608740024F2
:1016E00005E07068015D04AA601C1154641C306838
:1016F0000079A042F5D82D480088011204AA601C88
:1017000011542A480178A01C11542948008801125C
:10171000E01C115426480178201D1154E01C83B2AE
:10172000139881B20320400300F018FA2BE0042044
:1017300069460874002405E07068015D04AA601C15
:101740001154641C30680079A042F5D8174800880D
:10175000011204AA601C115414480178A01C1154F1
:10176000134800880112E01C115411480178201D13
:101770001154E01C83B2139881B20320400300F09F
:10178000EDF900E000BF00BF95273F02384601F0A9
:101790002BF809E0074F384601F026F804E0054F22
:1017A000413F384601F020F815B0F0BD3000002070
:1017B00032000020DE950000002001E000BF401C48
:1017C0006428FBDB70470000F0B58FB005460027AA
:1017D000002422E0CE2060432849085C696809782B
:1017E000884215D1CE20604324494018407869686A
:1017F000497888420CD1CE20604320494018807837
:1018000069688978884203D105241D48047004E082
:10181000601C84B23846CE3087B2042CDADB052C4B
:1018200024D11848007902281BD1174800780028D5
:1018300017D1002404E0002069460855601C84B2DA
:10184000032CF8DB03236A463946580300F086F977
:1018500095263602304600F0C7FF012009498870FE
:1018600009E00A4E304600F0BFFF04E0074EF61CC8
:10187000304600F0B9FF0FB0F0BD0000006000007E
:10188000230000206E040020220000209D9500000F
:1018900001684978AF2904D10A4949780268517032
:1018A0000AE00021074AD1705171917111460979FE
:1018B000012901D10021117101684978014A517053
:1018C000704700006E04002010B504462068407880
:1018D000A42804D0B02806D0D6280CD107E0204692
:1018E00001F0BCFB0CE0204601F05AFB08E020466A
:1018F00001F066FC04E06D20000200F075FF00BFFF
:1019000000BF10BD10B504462046FFF7C1FF206898
:101910004078BD2863D018DC60284AD00CDC45280C
:1019200069D004DC0A2831D03D286BD153E05A2815
:1019300028D05F2866D156E064285FD06A2831D06D
:101940006F2841D0AA285DD124E0CC2836D00CDC09
:10195000C4284CD004DCC02832D0C12852D12EE09B
:10196000CA280BD0CB284DD127E0CD2824D0DA28A7
:101970001BD0F5282BD0FC2844D10FE02046FFF7E0
:1019800079FB3FE0204601F095FF3BE02046FEF763
:1019900055FE37E02046FEF797FF33E0204600F083
:1019A0008DF92FE000F0D2F92CE02046FFF70CFF74
:1019B00028E000F021FC25E000BF00BF00BF00BF11
:1019C0002046FFF7F9FB1DE000F00CFA1AE0204674
:1019D00000F04EFA16E0204602F01CFA12E0204613
:1019E00001F0D8FC0EE02046FFF70AF90AE0204695
:1019F000FFF7D0F906E000F05FFB03E0204600F0BF
:101A000097FB00BF00BF10BD70B50446206840784A
:101A1000022808D105201E49086010201D4948757C
:101A200000201B4908602068407803281AD147200D
:101A30004002C079FF2804D047204002C079002826
:101A40000BD120680079082807DC20680379002181
:101A500047204002626800F081F80920000300F08E
:101A6000C3FE14E02068407804280CD120688078F8
:101A700000022168C97845182068017900222846AB
:101A800000F046FE03E06D20000200F0ADFE70BDE8
:101A900000D000404055000070B505460C4616E0E9
:101AA000284600F043F8012252021849284600F067
:101AB000E7F8012252021549E81DF93000F0E0F87C
:101AC000FF35FF350235E01FFF38FA3884B20120B8
:101AD00040028442E4DA002C17D0284600F026F8B1
:101AE000FF2C05DC22460949284600F0C9F80CE025
:101AF000E01FF93882B20549284600F0C1F8FF22FC
:101B000001320249A81800F0BBF870BD3400002073
:101B10000146002003E00A5C034B1A54401C0122DA
:101B200052029042F7DB70476E0200200321490306
:101B300088420ED3400A0749096801221143054A29
:101B400011603021017011460968FE221140014ADE
:101B50001160704700D0004001707047FFB581B040
:101B600006460C461D46F705FF0D002F02D0F61B5A
:101B7000E01984B206E0FF36FF360236E01FFF3878
:101B8000FA3884B2012040028442F4DA1BE0304685
:101B9000FFF7BEFF3046FFF7C9FF22463549304602
:101BA00000F06EF801214902091B8AB2301903992D
:101BB00000F066F8FF36FF36023601204002001BB7
:101BC000281A85B200246019012149028842DEDA10
:101BD0003046FFF79DFF3046FFF7A8FF002C15DDCC
:101BE000FF2C05DC22462349304600F049F80DE081
:101BF000FF2201321F49304600F042F8E01FF93859
:101C000082B21D49F01DF93000F03AF830192A4629
:101C1000039900F035F860191849884228D0481C0B
:101C2000001B401BFF280BDC4B1C1B1B5B1B9AB2D1
:101C3000104B1B1959193319581900F021F817E0E6
:101C4000FF2301331B1B5B1B9AB20A4B1B1959194B
:101C50003319581900F014F8064800194019FF30DC
:101C60000130001B411BFF220132B01800F008F8C0
:101C700005B0F0BD6E0200206E030020FF010000E1
:101C800010B50C4B1A625962986200230A4C23610A
:101C9000084B1B6804242343064C236030BF2346B3
:101CA0001B68FB242340034C23600423024C236164
:101CB00010BD000000D0004000ED00E038B5054642
:101CC0001DA0006800901D48007902282FD11C48F3
:101CD000006940210840402822D101236A460021A2
:101CE0001848FFF73BFF0121490303204003FFF79A
:101CF000D3FE0121C90305204003FFF7CDFE0121DA
:101D0000090309200003FFF7C7FE11210120C003CA
:101D1000FFF7C2FE95242402204600F065FD0AE08C
:101D2000286840780549487000F09CFD03E0064CA7
:101D3000204600F059FD38BD0F0000006E04002061
:101D400000D00040208F0000AE95000070B586B036
:101D50000024002615E0CE2060432149085C0028BD
:101D60000BD1CE20604340184078002805D1CE200A
:101D7000604340188078002801D0701CC6B2601CF7
:101D8000C4B2042CE7DB142E28DA002400251EE060
:101D9000CE20604312490A5C2846691CCDB201A9D5
:101DA0000A54CE2060430E49401842782846691CE8
:101DB000CDB201A90A54CE20604309494018827867
:101DC0002846691CCDB201A90A54601CC4B2B442B1
:101DD000DEDB0022294601A800F09AFC06B070BDA7
:101DE0000060000070B590B01D488078012804D1D3
:101DF0001C4E304600F0F8FC30E01948807802288C
:101E000028D1002400251DE017480078CE21484342
:101E1000164940180E300C216143401840780028C4
:101E20000ED011480078CE214843104940180E309A
:101E30000C2161434018407869464855681C85B2BA
:101E4000601C84B2102CDFDB00222946684600F0BB
:101E50005FFC03E0034E304600F0C6FC10B070BDDE
:101E60006E0400209D95000023000020006000000B
:101E7000F1B590B08B488078012804D18A4F38465C
:101E800000F0B2FC0CE18748807802287ED1002661
:101E900015E086480078CE214843854940180E3029
:101EA0000C217143401841781098406800788142B5
:101EB00003D180490E70112601E0701C86B2102EED
:101EC000E7DB112E7DD179480078CE21484378494F
:101ED00040180E30774909780C225143405C0300CA
:101EE000FEF79DFB05040570A5A6D30000BF6F4853
:101EF0000078CE2148436E4940180E306D4909786C
:101F00000C225143415C6846417068480078CE21FC
:101F10004843674940180E306649097851434018D4
:101F200001796846817061480078CE214843604954
:101F300040180E305F49097851434018417968468E
:101F4000C1705A480078CE214843594940180E3094
:101F500058490978514340188179684601715348BE
:101F60000078CE214843524940180E305149097833
:101F700051434018C179684641714C480078CE21E0
:101F800048434B4940180E304A4900E084E0097844
:101F900051434018017A6846817144480078CE2147
:101FA0004843434940180E3042490978514340188C
:101FB000417A6846C17100220721401C00F0A8FB4D
:101FC00064E064E039480078CE214843384940183D
:101FD0000E30384909780C2251434418217868465C
:101FE0004170A1788170E178C170217901716179C6
:101FF0004171A1798171E179C171217A0172617AAE
:102000004172A17A8172E17AC172217B0173217ED2
:102010004173617E8173A17EC173E17E0174617C35
:10202000417400221121401C00F072FB2EE000BF21
:102030001E480078CE2148431D4940180E301D49E6
:1020400009780C2251434518297868464170A978CF
:102050008170E978C1702979017169794171A97933
:102060008171E979C171297A0172697A4172A97A1B
:102070008172297CC172697C0173A97C4173002241
:102080000D21401C00F044FB00E000BF08E0064FBB
:10209000384600F0A9FB03E09D27384600F0A4FB7A
:1020A00011B0F0BD6E040020F09500002300002068
:1020B000006000002400002038B51848807801280E
:1020C0000AD1174801786846017001214170002249
:1020D000022100F01DFB20E010488078022818D172
:1020E00010480078CE2148430F494018C17868460F
:1020F00001700C480078CE2148430B494018007904
:102100000107090F684641700022022100F000FB20
:1021100003E0064C204600F067FB38BD6E0400204B
:10212000208F000023000020006000009D9500002B
:10213000F8B5054614488078012805D10022012110
:10214000124800F0E5FA1EE00F488078022816D108
:102150000F480078401C0006040C2046103884B25A
:1021600068680078001984B20920000320180078FC
:10217000009000220121684600F0CAFA03E0054EF3
:10218000304600F031FBF8BD6E04002011800000E5
:10219000230000209D95000030B502469923144C81
:1021A000A46804252C43124DAC60124C63600124DA
:1021B000104D2C7000BF0F4C247802252C40002CB1
:1021C000F9D0002004E00B4C64680C54441CE0B2CD
:1021D0009042F8DB074C2478FE252C40054D2C70EE
:1021E000034CA468FB252C40014DAC6030BD0000C1
:1021F00000D00040009000401FB52B48C078002858
:1022000014D1042168460170012141708170C170B0
:10221000002101711A21417105218171AF2207212D
:1022200000F076FA01202049C8703BE01E48C078D3
:10223000012814D104216846017001214170817088
:10224000C170032101711A21417105218171AF22F1
:10225000072100F05DFA02201349C87022E01248FD
:10226000C07802281ED1002407E047204002201831
:1022700001786A46601C1154C4B2072CF5DB0021BA
:102280006846017241728172C172017339214173D2
:102290000821817300220E21401C00F039FA002031
:1022A0000149C8701FBD00006E04002001200849CC
:1022B00088700020C87008714871887105490870DD
:1022C0000549087005490870054908707047000005
:1022D0006E040020230000202400002022000020A3
:1022E0002C000020F8B504462678784800780028AD
:1022F00006D0012815D002287ED0032810D1D2E0C4
:10230000522E01D0262E0BD1442020700320607065
:10231000022001F075FD01206C4908700020F8BD15
:10232000D0E0932E49D1607820281FD188202070DA
:1023300000202071207921784840207100250EE08E
:102340004720400228180178681C21542079472131
:1023500049026918097848402071681CC5B2032DEC
:10236000EEDB052001F04CFD0020D8E760787028F6
:102370007FD1002700250AE0E81C205C47214902A4
:1023800069180978884200D00127681CC5B2032D5E
:10239000F2DB002F0CD12420207001234C4A511C69
:1023A000881E01F0D7FC032001F02AFD0020B6E7CB
:1023B0000320464908700020B1E7952E48D1607887
:1023C00020281CD10020207100250FE0E81C4721A7
:1023D00049024018007860552079E91C47225202D2
:1023E0008918097848402071681CC5B2042DEDDBBE
:1023F000052001F005FD00E03CE000208FE760785B
:10240000702836D1002703250AE0681E205C47218A
:10241000490269180978884200D00127681CC5B2B2
:10242000072DF2DB002F0ED1202020700123284A37
:10243000511C881E01F08EFC032001F0E1FC0220FB
:102440002249087015E0032020490870002066E743
:10245000522E01D0262E08D1442020700320607017
:10246000022001F0CDFC002059E700201749087038
:1024700055E727E0502E04D10320144908700020AE
:102480004DE7522E01D0262E0BD144202070032080
:102490006070022001F0B4FC01200C49087000209B
:1024A0003DE701203BE7522E0BD144202070032052
:1024B0006070022001F0A4FC012004490870002093
:1024C0002DE700BF00BF002029E700002800002002
:1024D00001270020F8B5044672A00068009020781B
:1024E000FE21084006462078C707FF0F6E48007897
:1024F000022803D1AA206D4948700AE06A48007892
:10250000032803D1AB206949487002E0EE206749F7
:102510004870C22E70D008DC002E6ED0022E45D03E
:10252000522E09D0B22E11D161E0D02E28D0E02E4B
:102530000DD0F22EF7D16EE04420207003206070A1
:10254000022001F05DFC012059490870A6E0062038
:102550002070752060700020A0708120E070002045
:102560002071802060710623524A511CC81F01F05F
:10257000F1FB02204C490870082001F041FC8DE07D
:10258000A0784A49087001234A4A521F511C881EEC
:1025900001F0E0FB03204449087001F031FC43489E
:1025A00000780007000F4449886077E04148801FA9
:1025B0004078002809D03F48801F4078512804D037
:1025C0003C48801F4078902801D10320F8BD91201D
:1025D00060701C20A0700323364AD21E511C081FB5
:1025E00001F0B8FB052001F00BFC0320EEE7012F02
:1025F00004D1A220207003E03EE04EE0A320207032
:1026000001232C4A521F511C881E01F0A3FB0320FA
:1026100001F0F6FB42E0294840783D2829D0FC280B
:1026200028D10121490303204003FFF735FA012196
:10263000C90305204003FFF72FFA012109030920F0
:102640000003FFF729FA11210120C003FFF724FA44
:1026500001236A4600211A48FFF780FA17480078DC
:102660001449891F087095252D02284600F0BCF8F2
:1026700000E000BF00BF00BF01230E4A521F511CE3
:10268000881E01F067FB032001F0BAFB0320084914
:10269000087000200849886000E000BF00BF0220E9
:1026A00094E700000F0000002900002064020020D1
:1026B0002800002006270020003000406E04002083
:1026C000208F000010B5044613E00E4801F080FB97
:1026D0000D480078022805D00C48FFF703FE0028BB
:1026E00000D106E00948FFF7F5FE022800D100E01E
:1026F00000E0EAE700BF0548401C2060401D606024
:10270000002010BD2A000020280000200027002003
:10271000F0B585B007460C461646304800694021A2
:102720000840402832D12E4800782D494978484049
:1027300003902B49087800F037FD2949487800F0CC
:1027400033FDA11C03984840C0B20390C8B200F00A
:102750002BFD002508E0785D00F026FD785D0399EB
:1027600048400390681C85B2A542F4DB952000F038
:102770001BFD304600F018FD304695214840039976
:1027800048400390039800F00FFD25E0002506E087
:10279000795D681C134A80180170681C85B2A542D7
:1027A000F6DB952002900196611C0E4A891802986A
:1027B0000870A01C11464018019E0670E01C83B2F0
:1027C0004218201D401801460090064801F0C2FA48
:1027D000611DC8B201F014FB05B0F0BD00D000408F
:1027E000780400200027002070B504461A480069CC
:1027F00040210840402820D11848007817494978DE
:10280000484005461549087800F0CEFC1349487841
:1028100000F0CAFC0220454020124540E0B245408D
:10282000022000F0C1FC201200F0BEFCE0B200F07B
:10283000BBFC284600F0B8FC0CE0201208494870A8
:102840008C700323CA1C091D081F01F083FA0520A0
:1028500001F0D6FA70BD000000D0004078040020DE
:10286000002700207CB51D48006940210840402811
:1028700020D11B48017868460170C32141700121B5
:1028800081709F21C1700025002404E06846005D2E
:102890004540601CC4B2042CF8DB68460571002476
:1028A00005E06946085D00F07FFC601CC4B2052CA1
:1028B000F7DB11E00B4800780B490870F22009495A
:1028C00008703B20487002238A1CC91CC81E01F0F6
:1028D00041FA042001F094FA7CBD000000D00040D1
:1028E00078040020002700206E040020F0B585B099
:1028F00007460C46164630480069402108404028EB
:1029000032D12E4800782D494978484001902B4912
:10291000087800F049FC2949487800F045FCA11CE2
:1029200001984840C0B20190C8B200F03DFC0025BB
:1029300008E0785D00F038FC785D0199484001902E
:10294000681C85B2A542F4DB902000F02DFC3046D7
:1029500000F02AFC304690214840019948400190FF
:10296000019800F021FC25E0002506E0795D681C57
:10297000134A80180170681C85B2A542F6DB9020CE
:1029800003900296611C0E4A891803980870A01CD7
:1029900011464018029E0670E01C83B24218201DAA
:1029A000401801460090064801F0D4F9611DC8B2F4
:1029B00001F026FA05B0F0BD00D0004078040020F8
:1029C00000270020F0B5F5B007460E4614463868DB
:1029D000407808A90875012506E0681E7968085C3A
:1029E0000DA94855681C85B2072DF6DD08220DA9F2
:1029F00061A800F093FC1022414902A800F08EFC6F
:102A000061A80A9002A808900220694688853D487E
:102A10000990079007A801F091F800203055621C3A
:102A20000CA9304601F07EF8201D85B206E0281F73
:102A3000201A0CA9085C3055601C84B2AC42F6DB4D
:102A40002046E117090F091809110901611A1BD065
:102A5000254603E000207055681C85B22046E1172A
:102A6000090F091809110901611A1022511A0919CF
:102A7000A942EFDCE117090F091809110901611AD0
:102A8000511A09198CB201E0601C84B2E2B23146DD
:102A90004DA800F043FC1B48099002A8089061A8CB
:102AA00007904DA80A902046E117890F091889035D
:102AB0000A0C69468A85042008A9887307A801F0D2
:102AC000FBF8E017800F00198005020E61A90DA820
:102AD0000130019400F0FAFB952000020690069860
:102AE000C2B221460DA80130FFF712FE20460F3872
:102AF0000DAA81181022034800F010FC75B0F0BD3B
:102B0000540200207C050020F0B5FFB08AB00546D5
:102B10006F6878790002397908430290B87800022A
:102B200079780843019028680079C01FC2B2F91D66
:102B300075A800F0F3FB10225A4903A800F0EEFB41
:102B400059480A9003A8099061A8089075A80B90AD
:102B500029680979C81FC117890F091889030A0C48
:102B600069460A86002108A8817401F0A5F8286842
:102B7000417818A80175012606E0701E6968085C96
:102B80001DA98855701C86B2072EF6DD28680079CD
:102B9000C01F0090C017810F009808188005020E12
:102BA00061A90DA800F092FB082607E0304608381E
:102BB0000DA9085C1DA98855701C86B202980C30BE
:102BC0008642F3DB029801460C311DA800F094FF09
:102BD000002805D1354807900798FFF705FE5EE00D
:102BE00033480078CE214843324940180E303249EC
:102BF00009780C225143401841890198081880B285
:102C000001903B790DAA052040030199FEF7A6FF2C
:102C100002981430C4B22046E117890F09188910B0
:102C20008900611A09D0E117890F091889108900F4
:102C3000611A0422511A0919CCB2002118A8017591
:102C400022461DA961A800F069FB286800791038A8
:102C50006A68111810225DA800F060FB75A8089042
:102C600003A8099061A80B900121684601865DA820
:102C70000A9008A800F062FF082275A91DA800F0BC
:102C800025FB9520000207900798C2B208211DA8D5
:102C9000FFF73EFD10221DA9034800F03FFB7FB067
:102CA0000AB0F0BD540200207C0500201E950000F3
:102CB000230000200060000024000020F0B5C3B015
:102CC000044620680079401EC2B26068411C33A8E7
:102CD00000F024FB102234491AA800F01FFB23A89F
:102CE0001E9033A82190082120A801812F48209010
:102CF000002120A881721AA81F901EA800F0DCFFF6
:102D000020680079401E0190C017810F01980818B3
:102D10008005020E23A90AA8023000F0D7FA206825
:102D2000417808A801726068017808A841722221E0
:102D30000AA800F0E1FE002804D11D4F3846FFF735
:102D400053FD2FE000261B4800780002801986B250
:102D5000606800780001801986B200250CE07019C7
:102D600009210903401800780AAAA91C515C4840AF
:102D700002A94855681C85B2102DF0DB08A8817E99
:102D80006846017608A8C17E68464176102302AAEB
:102D9000314609200003FEF7E1FE95273F02384641
:102DA000FFF722FD43B0F0BD540200207C05002057
:102DB0001E9500002300002070B598B00546696894
:102DC000481C182308AA224901F035FB122108A843
:102DD00001F002FC002831D100241E4800780002D6
:102DE000001984B2686800780001001984B21023C9
:102DF00008AA214609200003FEF7B0FE1548007816
:102E0000401C0006040C2046103884B26868007824
:102E1000001984B20920000320180078401C69467C
:102E2000087001236A46214609200003FEF796FE3A
:102E3000952636023046FFF7D7FC06E0064E3046B0
:102E4000FFF7D2FC00200549087118B070BD0000E2
:102E500054020020230000201E9500006E04002074
:102E6000F0B599B005466968481C182301AA3A498B
:102E700001F0E1FA0024394800780002001984B218
:102E8000686800780001001984B200260BE0A019E0
:102E9000092109034018007801A9895D484011A95A
:102EA0008855701C86B2102EF1DB2D480078F02179
:102EB0000840002814D168680078002808D16846C6
:102EC000017D10A801756846417D10A8417507E095
:102ED0006846817D10A801756846C17D10A84175BE
:102EE000122101A801F078FB00282CD1122111A891
:102EF00001F072FB002826D1102311AA21460920D7
:102F00000003FEF72BFE15480078401C0006040C59
:102F10002046103884B268680078001984B209200D
:102F2000000320180078401CC0B2009001236A46BC
:102F3000214609200003FEF711FE95273F0238467F
:102F4000FFF752FC06E0074F3846FFF74DFC002024
:102F50000549087119B0F0BD54020020230000207B
:102F6000208F00001E9500006E04002030B591B047
:102F700004466168481C182301AA084901F05BFA5D
:102F8000102301AA0021D802FEF7E8FD95252D02A5
:102F90002846FFF729FC11B030BD00005402002084
:102FA000F0B593B005462868067922480078CE210E
:102FB0004843214940180E30204909780C225143DA
:102FC0004018408912902868807800022968C978E2
:102FD000084307461298381887B23C2E12DA0024AC
:102FE00008E0E019052149034018007801A90855B7
:102FF000601CC4B2B442F4DB0022314601A8FFF7E2
:1030000075FC14E032201190002408E0E01905213D
:1030100049034018007801A90855601CC4B21198F2
:103020008442F3DB0022314601A8FFF75FFC13B0B6
:10303000F0BD0000230000200060000024000020FC
:1030400000BF054880680028FBD000200249886046
:1030500008464068C0B2704700C0004070B50546E1
:1030600028688078042857D128680079072853D128
:10307000002444E0CE20604347494018C079696885
:103080000978884239D1CE20604343494018007AFC
:1030900069684978884230D1CE2060433E49401863
:1030A000407A69688978884227D1CE2060433A49BE
:1030B0004018807A6968C97888421ED1CE20604362
:1030C00035494018C07A69680979884215D1CE20FF
:1030D000604331494018007B6968497988420CD1C6
:1030E000CE2060432C494018407B6968897988422A
:1030F00003D12A480470052401E0601CC4B2042CEA
:10310000B8DB052C04D109200003FFF76DFB41E07B
:103110002348FFF769FB3DE028688078002836D116
:1031200028680079022832D1002423E01B48007867
:10313000CE214843184940180E300C2161434018F5
:10314000807869684978884212D114480078CE2185
:103150004843114940180E300C2161434018C07893
:1031600069680978884203D10E480470112401E08F
:10317000601CC4B2102CD9DB112C04D1092000032F
:10318000FFF732FB06E00648FFF72EFB02E004489B
:10319000FFF72AFB70BD0000006000002300002044
:1031A000826A00002400002000BF0449486030BF4C
:1031B0000968102211401029F7D0704700C0004064
:1031C00070B5044611480078CE2148431049401894
:1031D0000E30104909780C22514340184689206866
:1031E000807800022168C97808430546A81985B28D
:1031F000206803792946052040036268FEF7AEFC8B
:1032000009200003FFF7F0FA70BD00002300002042
:10321000006000002400002010B5144880680221DE
:10322000084312498860FDF7F1F80120C0030078D7
:10323000FF2801D100F01EF800F0BAFD0B4800692C
:1032400040210840402806D1FDF7C6F8FDF79CF95B
:10325000FDF78EF907E005E00548FFF733FA04486B
:1032600000F07AFBF8E7002010BD000000D000401D
:1032700000000020002012E01249096802221143D8
:10328000104A116000210122D203821811700D49E9
:103290000968FD2211400B4A1160411C88B21028B8
:1032A000EADB0849096802221143064A11600F212E
:1032B000054A117003490968FD221140014A116055
:1032C0007047000000D00040208F0000F0B503469A
:1032D0001446002200201EE085004D592D0E164692
:1032E000571CFAB29D5585004D592D022E0E1546DC
:1032F000571CFAB25E5585004D5B2D042E0E154607
:10330000571CFAB25E5585004E5D1546571CFAB241
:103310005E55451CE8B2A042DEDBF0BDF0B50346C9
:103320000024002025E02546661CF4B24D5D2D06E4
:1033300086009D5185005D592646671CFCB28E5D56
:103340003604354386009D5185005D592646671C2D
:10335000FCB28E5D3602354386009D5185005D5975
:103360002646671CFCB28E5D354386009D51451C88
:10337000E8B2D617B60FB618B6108642D3DCF0BD49
:103380000A6802604A6842608A688260CA68C260ED
:1033900070470000F1B5FFB089B000208490FE486E
:1033A000407900287ED1FC48807802287BD188981B
:1033B000476800242BE0F9480078CE214843F849BB
:1033C00040180E300C21614340184078397888420B
:1033D0001BD1F2480078CE214843F14940180E3005
:1033E0000C216143405C00280BD0EC480078CE21D2
:1033F0004843EB4940180E300C216143405C0128E2
:1034000003D1E8490C70112401E0601C84B2102C37
:10341000D1DB112C6CD1E1480078CE214843E04942
:1034200040180E30DF4909780C225143401880794A
:10343000F0210840E0280FD0D8480078CE2148433A
:10344000D74940180E30D749097851434018407980
:10345000F0210840E02854D13D79797909020D43E3
:10346000002D1ED10120D0490870CC480078CE2113
:103470004843CB4940180E30CA4909780C225143C1
:103480004018C579C5480078CE225043C44A8018F8
:103490000E30C44A12780C235A438018007A000276
:1034A000054301E03DE136E1BC480078CE214843C8
:1034B000BB4940180E30BB4909780C2251434018D3
:1034C00040898590B8780002797808430646859847
:1034D000301886B2FF2D0CDD052149037018AF228C
:1034E000FF21FFF715F90120AB494871FF208490B7
:1034F000D6E105214903701800222946FFF708F993
:10350000CEE1A6480078CE214843A54940180E30A8
:10351000A44909780C22514340188079F0210840D1
:10352000F02815D19D480078CE2148439C49401889
:103530000E309C490978514340184079F0210840E9
:10354000F02805D1994887908798FFF74DF9A7E1B2
:1035500091480079022872D190480078CE214843E2
:103560008F4940180E308F4909780C22514340187A
:103570008079F02108408E4909780901884212D0EB
:1035800086480078CE214843854940180E30854949
:103590000978514340184079F0210840844909785E
:1035A00009018842D7D13D79797909020D43002D6F
:1035B0001BD17A480078CE214843794940180E3013
:1035C000784909780C2251434018C5797349097824
:1035D000CE225143724A89180E31724A12780C2356
:1035E0005A438918097A09020D436C480078CE21A4
:1035F00048436B4940180E306A4909780C22514300
:10360000401840898590B8780002797808430646CA
:103610008598301886B2FF2D22DD05204003301832
:10362000302304AA01326349019000F02EFFAF223B
:10363000302104A80130FFF76BF8002408E063E0B4
:103640002046293004A9085C02A90855601C84B2F0
:10365000082CF5DB022050494871302084901FE18E
:10366000002408E03019052149034018007844A9D6
:103670000855601C84B2AC42F4DB48480078CE2187
:1036800048434749401800790011082809D04348A9
:103690000078CE21484342494018007900110A2899
:1036A00005D12A4644A98898FFF78CF9F8E044A888
:1036B000021944A9601C081823460146019044A839
:1036C00000F048FBA81C85B26807400F002805D011
:1036D0002C460720C0432040083085B204E000207B
:1036E00044A90855601C84B2AC42F8DBE3B204AADA
:1036F0000132304944A800F0C8FE0022214604A847
:103700000130FFF705F8CBE0284811308790879803
:10371000FFF76AF8C4E0254887908798FFF764F8B8
:10372000BEE01D484079012824D13046323086B2AF
:1037300084983230A8420EDA052149037018AF226E
:103740003221FEF7E5FF8498323080B28490012068
:1037500011494871A4E08498281A85B205214903CB
:10376000701800222946FEF7D3FF002084900A49F2
:10377000487195E00848407902283FD18498301874
:1037800080B2869084983630A84238DA3020009093
:103790000521490386980FE06E04002023000020D5
:1037A00000600000240000202C0000209D950000F7
:1037B0002200002054020020401804AB01333A4A92
:1037C0000146019002A800F027F9AF22302104A899
:1037D0000130FEF79DFF002407E02046293004A9B0
:1037E000085C02A90855601C84B2082CF5DB022095
:1037F0002E4948718498303080B2849050E084988B
:10380000281A85B2002409E0869800190521490389
:103810004018007844A90855601C84B2AC42F3DB20
:103820008498281883B244A80219611C401801909A
:103830000520400330180090019900F08BFAA81C75
:1038400085B26807400F002817D02C460720C043D8
:103850002040083085B216480078002805D0802224
:103860002046611C8CB244A90A5404E0002044A9FB
:103870000855601C84B2AC42F8DBE0B204AB013303
:10388000094A44A9009002A800F0C6F80022214687
:1038900004A80130FEF73CFF0020044948718490E1
:1038A0007FB00AB0F0BD0000540200206E0400207A
:1038B0002C00002070B504460025606800780028C0
:1038C0000CD160684078002808D1606880780028B2
:1038D00004D1052501201C49887025E022E0CE2076
:1038E00068431A49085C61680978884218D1CE207B
:1038F00068431649401840786168497888420FD17A
:10390000CE206843114940188078616889788842E0
:1039100006D10F490D7002200B498870052501E082
:10392000681C85B2042DDADB052D08D195263602F8
:103930003046FEF759FF00200349087103E0054EA9
:103940003046FEF751FF70BD6E040020006000009D
:1039500023000020A095000010B50446124800681E
:103960000078902804D0104800680078C02803D15F
:103970000D48FDF7C7FF15E00B48006800780028E8
:1039800003D10948FDF7A0FF0CE007480068007864
:10399000512803D10448FEF737F803E037204002EE
:1039A000FEF722FF002010BD00000020FFB582B00E
:1039B0000E461F466A463046049900F027FD002453
:1039C00007E00298005D6946095D48403855601C73
:1039D000C4B2082CF5DB002517E031460831481940
:1039E0006A46049900F012FD002409E06019305C79
:1039F0006946095D4840611908317854601CC4B2B9
:103A0000082CF3DB28460830C5B2284608300B994D
:103A10008842E2DB06B0F0BDFFB582B00F461E461D
:103A2000002407E00298005D395D4840694608556A
:103A3000601CC4B2082CF5DB32466846049900F0DD
:103A4000E5FC002518E000240AE06019305C2146FE
:103A500008314919795C484069460855601CC4B270
:103A6000082CF2DB3046083042196846049900F011
:103A7000CDFC28460830C5B2284608300B9988424C
:103A8000E1DB06B0F0BD000070B504460D461848F5
:103A9000806820263043164EB0600320154E7060BB
:103AA000012030603046846000203060002103E057
:103AB000685C104EB060491C9942F9DB0D48806883
:103AC000000ED0700B4880680002000E907009480C
:103AD00080680004000E507006488068107004482A
:103AE0008068DF263040024EB060002070BD0000CC
:103AF00000D000400070004078B506460D462A46CA
:103B00006946304600F00EF8002407E06846005D84
:103B1000002801D0002078BD601CC4B2042CF5DB65
:103B20000120F8E770B504460D46164633462A468E
:103B300021460020C043FFF7A7FF70BDF0B5BBB022
:103B400005460020169050488068102108434E49D1
:103B5000886004204D490870288A012800D101E0BE
:103B6000288A8000C4B204222FA86968FFF7AEFB40
:103B700033AA37A92FA8FDF707FA20460F30C1173F
:103B8000090F09180E11002E03D1012601201690ED
:103B90000BE02046E117090F091809110901611A04
:103BA00001D0012100E000211691042206A8E96855
:103BB000FFF78CFB1698002808D1701E000106AA9A
:103BC000811837AA2BA8FCF71DFD13E0E117090F98
:103BD000091909110901611ACAB2711E090106AB5E
:103BE000C81817A90194FDF72CFA33AA17A92BA816
:103BF000FCF708FD042202A8A968FFF767FB02A9E9
:103C000027A8FCF749FC002719E0BA01E8688118E9
:103C100027AA23A8FCF7F6FC686800F039F8102200
:103C200027A91FA8FFF77AFB102223A91BA8FFF7DB
:103C300075FB1BA91FA8FCF7E3FA781CC7B2701E1E
:103C4000B842E2DC2BAA27A923A8FCF7DBFC102250
:103C500027A91FA8FFF762FB102223A91BA8FFF7C3
:103C60005DFB1BA91FA8FCF7CBFA1FA92868FFF76B
:103C700087FB00200549087003488068EF21084051
:103C8000014988603BB0F0BD00D0004000B000406A
:103C9000084AC1685161816891614168D1610168D8
:103CA000116200BF03490978022211400029F9D0AE
:103CB0007047000000B0004070B50446208AC1176C
:103CC000890F09188D10A6681F48806810210843C5
:103CD0001D498860A07C002802D11C49087002E0C0
:103CE00004201A4908706068FFF7D2FF1FE0A07C2B
:103CF00000280AD11648E168FCF782FA144A3146D6
:103D0000206800F071FBE66809E031461048E2687F
:103D100000F06AFB0E492068FCF772FA26682068FA
:103D200010302060E0681030E060681E85B2002D21
:103D3000DDDC00200549087003488068EF21084059
:103D40000149886070BD000000D0004000B0004014
:103D50003402002070B50446124DAD68202635436C
:103D6000104EB5600125104E756035600F4DB56081
:103D700000253560002003E0255C0B4EB560401C3B
:103D80009842F9DB084DAD682D042D0E0D70064DDF
:103D9000AD681570034DAD68DF263540014EB56046
:103DA00070BD000000D00040007000406363000060
:103DB0000120054988700020C87008714871887119
:103DC00002490870704700006E0400202C0000209B
:103DD0000949496901221143074A51610121074AF2
:103DE000516030BF0449496949084900024A51619C
:103DF0000249C9680180704700D00040003000408F
:103E00000349C8600321024A516030BF7047000077
:103E100000300040F0B5C9B0054600204490FE488F
:103E20008079002875D1FC488078022872D16868B2
:103E3000489000262CE0F9480078CE214843F84904
:103E400040180E300C217143401841784898007892
:103E500081421BD1F1480078CE214843F0494018F7
:103E60000E300C217143405C00280BD0EB480078E9
:103E7000CE214843EA4940180E300C217143405C82
:103E8000012803D1E7490E70112601E0701C86B2AB
:103E9000102ED0DB112E7DD14898807800024899F1
:103EA000497808434690489840790402489909792E
:103EB0000C43DA480078CE214843D94940180E30E7
:103EC000D84909780C2251434018007A0002D3499E
:103ED0000978CE225143D24A89180E31D14A12783C
:103EE0000C235A438918C97908434790469800190A
:103EF00086B248988079002806D14898C078002872
:103F000002D14798864206DDC74F3846FEF76CFC63
:103F10005CE2D6E1CFE1C1480078CE214843C049F8
:103F200040180E30BF4909780C225143401880795F
:103F30000007000F0E281FD0B8480078CE21484354
:103F4000B74940180E30B7490978514340184079B5
:103F5000F0210840E0280FD0B0480078CE21484337
:103F6000AF4940180E30AF490978514340180079E5
:103F70008007800F002861D128680179E01D814207
:103F80002FDAA6480078CE214843A54940180E30C4
:103F9000A44900E089E109780C2251434018408986
:103FA000459046994598081880B24690286800794F
:103FB000C01F80B24490489AD21D05204003449B04
:103FC0004699FDF7CBFD46994498081880B2469073
:103FD000954F31373846FEF707FC01208E4988712E
:103FE000F4E128680179E01D814222D1E82C20DC2F
:103FF0008A480078CE214843894940180E308949C3
:1040000009780C22514340184089459046994598BB
:10401000081880B246902346489AD21D05204003D6
:104020004699FDF79BFD95273F023846FEF7DCFBDE
:10403000CCE17D4F3846FEF7D7FBC7E177480078E3
:10404000CE214843764940180E30764909780C2233
:104050005143401880790007000F0F2815D16F4891
:104060000078CE2148436E4940180E306D490978DA
:10407000514340184079F0210840F02805D16A4F9B
:104080001F373846FEF7B0FBA0E1634800790228ED
:104090007ED162480078CE214843614940180E30F5
:1040A000604909780C225143401880790007000FBD
:1040B0005E490978884212D058480078CE2148439A
:1040C000574940180E3057490978514340184079F4
:1040D000F02108405549097809018842D8D154484F
:1040E00004804E480078CE2148434D49401800795D
:1040F0000011082809D049480078CE214843484992
:104100004018007900110A2814D1201D84B22046DD
:10411000E117090F091809110901611A15D0E117F2
:10412000090F091809110901611A1022511A0919F8
:104130008CB20AE0A01C84B26007400F002804D0B3
:104140002046F82108400446083428680179E01D1B
:10415000814247DA31480078CE214843304940183F
:104160000E30304909780C2251434018408945905F
:1041700046994598081880B2469028680079C01F73
:1041800080B244904498C3B204AA2A49489800E0F7
:1041900085E0C01D00F04FF94498083880B2479080
:1041A000002608E0479881194898C01D405C02A984
:1041B0008855701C86B2082EF4DB04AA0520400343
:1041C000449B4699FDF7CAFC44994698401880B232
:1041D0004690154F31373846FEF706FB02200E4950
:1041E0008871F3E028680179E01D814252D1E82C02
:1041F00050DC0A480078CE214843094940180E3067
:10420000084909780C225143401840894590469945
:104210004598081880B20FE06E04002023000020AB
:1042200000600000240000207E9500002200002095
:104230002600002054020020469065480078CE21D8
:1042400048436449401800790011082809D06048A3
:104250000078CE2148435F494018007900110A28B0
:1042600003D12846FEF750FCB0E0E3B204AA5A4955
:104270004898C01D00F0DFF84898037904AA05208B
:1042800040034699FDF76AFC95273F023846FEF742
:10429000ABFA9BE0514F3846FEF7A6FA96E04F4F37
:1042A00030373846FEF7A0FA90E04C4F7237384668
:1042B000FEF79AFA8AE0494F1F373846FEF794FA1C
:1042C00084E047488079002845DD286801794498D2
:1042D0000818A04240DA42488079022822D1286892
:1042E0000079009004AB3C4A02A86968FFF75EFBC6
:1042F0002868037904AA052040034699FDF72EFC9F
:1043000028680079083880B24790002607E069687D
:1043100047988019085C02A98855701C86B2082E3F
:10432000F5DB07E0286803796A68052040034699B1
:10433000FDF714FC286801794498081880B244906D
:10434000286801794698081880B24690234F313783
:104350003846FEF749FA39E0286801794498081888
:10436000A0422FD11E48807902281AD128680079EE
:10437000009004AB184A02A86968FFF717FB286889
:10438000067918480088201A80B247904798301A5A
:1043900086B2334604AA052040034699FDF7DEFBAA
:1043A00007E0286803796A68052040034699FDF70D
:1043B000D5FB95273F023846FEF716FA002008493C
:1043C000887103E0054F3846FEF70EFA49B0F0BD9C
:1043D0002300002000600000540200207E950000B1
:1043E0006E0400202600002010B50B68146863409E
:1043F00003604B685468634043608B689468634013
:104400008360CB68D4686340C36010BD7CB505464B
:104410000C4616466A462146284600F09FF86A4632
:1044200021460831684600F05BF83246214668466E
:1044300000F094F87CBDFFB582B0064617463A46B8
:1044400030460399FFF7E2FF002517E031460831B7
:1044500048196A460399FFF7D9FF002409E060195B
:10446000305C6946095D4840611908317854601C28
:10447000C4B2082CF3DB28460830C5B22846083001
:1044800005998842E2DB06B0F0BDFFB582B0074671
:104490001646324638460399FFF7B8FF002518E064
:1044A00000240AE06019305C214608314919795C22
:1044B000484069460855601CC4B2082CF2DB3046FF
:1044C0000830421968460399FFF7A0FF28460830D4
:1044D000C5B22846083005998842E1DB06B0F0BD38
:1044E00030B503461B4CA46808252C43194DAC601D
:1044F0000624194D2C60002004E00C5C164D6C6005
:10450000441CE0B20828F8DB0424134D2C60002082
:1045100004E01C5C104D6C60441CE0B20828F8DB21
:1045200005240D4D2C6000BF0B4C2468E407E40FFC
:10453000002CF9D0002004E0074CA4681454441C5B
:10454000E0B20828F8DB034CA468F7252C40014DA5
:10455000AC6030BD00D0004000A0004030B5034644
:104560001B4CA46808252C43194DAC600224194D3E
:104570002C60002004E00C5C164D6C60441CE0B222
:104580000828F8DB0024134D2C60002004E01C5C9C
:10459000104D6C60441CE0B20828F8DB01240D4D7E
:1045A0002C6000BF0B4C2468E407E40F002CF9D00A
:1045B000002004E0074CA4681454441CE0B208280E
:1045C000F8DB034CA468F7252C40014DAC6030BDEE
:1045D00000D0004000A0004070B502460B4601200C
:1045E0000E4E706030600E48B060002030600021D8
:1045F00003E0505C094EB060491C9942F9D307486A
:104600008068C0B2051205488068C4B2002D03D18D
:10461000002C01D1002070BD0120FCE7007000409B
:10462000636300003B92968111FE33441D0000003D
:10463000504600000000002034000000040100008B
:104640008446000034000020FC150000200100001A
:10465000000000000000000000000000000000005A
:1046600000000000000000870100000000000000C2
:10467000000000000000000000000000000000003A
:044680000000000036
:04000005000000C136
:00000001FF
